{
  "_format": "hh-sol-artifact-1",
  "contractName": "MyEpicGame",
  "sourceName": "contracts/MyEpicGame.sol",
  "abi": [
    {
      "inputs": [
        {
          "internalType": "string[]",
          "name": "characterNames",
          "type": "string[]"
        },
        {
          "internalType": "string[]",
          "name": "characterImageURIs",
          "type": "string[]"
        },
        {
          "internalType": "uint256[]",
          "name": "characterHp",
          "type": "uint256[]"
        },
        {
          "internalType": "uint256[]",
          "name": "characterAttackDmg",
          "type": "uint256[]"
        },
        {
          "internalType": "string",
          "name": "bossName",
          "type": "string"
        },
        {
          "internalType": "string",
          "name": "bossImageURI",
          "type": "string"
        },
        {
          "internalType": "uint256",
          "name": "bossHp",
          "type": "uint256"
        },
        {
          "internalType": "uint256",
          "name": "bossAttackDamage",
          "type": "uint256"
        }
      ],
      "stateMutability": "nonpayable",
      "type": "constructor"
    },
    {
      "anonymous": false,
      "inputs": [
        {
          "indexed": true,
          "internalType": "address",
          "name": "owner",
          "type": "address"
        },
        {
          "indexed": true,
          "internalType": "address",
          "name": "approved",
          "type": "address"
        },
        {
          "indexed": true,
          "internalType": "uint256",
          "name": "tokenId",
          "type": "uint256"
        }
      ],
      "name": "Approval",
      "type": "event"
    },
    {
      "anonymous": false,
      "inputs": [
        {
          "indexed": true,
          "internalType": "address",
          "name": "owner",
          "type": "address"
        },
        {
          "indexed": true,
          "internalType": "address",
          "name": "operator",
          "type": "address"
        },
        {
          "indexed": false,
          "internalType": "bool",
          "name": "approved",
          "type": "bool"
        }
      ],
      "name": "ApprovalForAll",
      "type": "event"
    },
    {
      "anonymous": false,
      "inputs": [
        {
          "indexed": true,
          "internalType": "address",
          "name": "from",
          "type": "address"
        },
        {
          "indexed": true,
          "internalType": "address",
          "name": "to",
          "type": "address"
        },
        {
          "indexed": true,
          "internalType": "uint256",
          "name": "tokenId",
          "type": "uint256"
        }
      ],
      "name": "Transfer",
      "type": "event"
    },
    {
      "inputs": [
        {
          "internalType": "address",
          "name": "to",
          "type": "address"
        },
        {
          "internalType": "uint256",
          "name": "tokenId",
          "type": "uint256"
        }
      ],
      "name": "approve",
      "outputs": [],
      "stateMutability": "nonpayable",
      "type": "function"
    },
    {
      "inputs": [],
      "name": "attackBoss",
      "outputs": [],
      "stateMutability": "nonpayable",
      "type": "function"
    },
    {
      "inputs": [
        {
          "internalType": "address",
          "name": "owner",
          "type": "address"
        }
      ],
      "name": "balanceOf",
      "outputs": [
        {
          "internalType": "uint256",
          "name": "",
          "type": "uint256"
        }
      ],
      "stateMutability": "view",
      "type": "function"
    },
    {
      "inputs": [],
      "name": "bigBoss",
      "outputs": [
        {
          "internalType": "string",
          "name": "name",
          "type": "string"
        },
        {
          "internalType": "string",
          "name": "imageURI",
          "type": "string"
        },
        {
          "internalType": "uint256",
          "name": "hp",
          "type": "uint256"
        },
        {
          "internalType": "uint256",
          "name": "maxHp",
          "type": "uint256"
        },
        {
          "internalType": "uint256",
          "name": "attackDamage",
          "type": "uint256"
        }
      ],
      "stateMutability": "view",
      "type": "function"
    },
    {
      "inputs": [
        {
          "internalType": "uint256",
          "name": "tokenId",
          "type": "uint256"
        }
      ],
      "name": "getApproved",
      "outputs": [
        {
          "internalType": "address",
          "name": "",
          "type": "address"
        }
      ],
      "stateMutability": "view",
      "type": "function"
    },
    {
      "inputs": [
        {
          "internalType": "address",
          "name": "owner",
          "type": "address"
        },
        {
          "internalType": "address",
          "name": "operator",
          "type": "address"
        }
      ],
      "name": "isApprovedForAll",
      "outputs": [
        {
          "internalType": "bool",
          "name": "",
          "type": "bool"
        }
      ],
      "stateMutability": "view",
      "type": "function"
    },
    {
      "inputs": [
        {
          "internalType": "uint256",
          "name": "_characterIndex",
          "type": "uint256"
        }
      ],
      "name": "mintCharacterNFT",
      "outputs": [],
      "stateMutability": "nonpayable",
      "type": "function"
    },
    {
      "inputs": [],
      "name": "name",
      "outputs": [
        {
          "internalType": "string",
          "name": "",
          "type": "string"
        }
      ],
      "stateMutability": "view",
      "type": "function"
    },
    {
      "inputs": [
        {
          "internalType": "uint256",
          "name": "",
          "type": "uint256"
        }
      ],
      "name": "nftHolderAttributes",
      "outputs": [
        {
          "internalType": "uint256",
          "name": "characterIndex",
          "type": "uint256"
        },
        {
          "internalType": "string",
          "name": "name",
          "type": "string"
        },
        {
          "internalType": "string",
          "name": "imageURI",
          "type": "string"
        },
        {
          "internalType": "uint256",
          "name": "hp",
          "type": "uint256"
        },
        {
          "internalType": "uint256",
          "name": "maxHp",
          "type": "uint256"
        },
        {
          "internalType": "uint256",
          "name": "attackDamage",
          "type": "uint256"
        }
      ],
      "stateMutability": "view",
      "type": "function"
    },
    {
      "inputs": [
        {
          "internalType": "address",
          "name": "",
          "type": "address"
        }
      ],
      "name": "nftHolders",
      "outputs": [
        {
          "internalType": "uint256",
          "name": "",
          "type": "uint256"
        }
      ],
      "stateMutability": "view",
      "type": "function"
    },
    {
      "inputs": [
        {
          "internalType": "uint256",
          "name": "tokenId",
          "type": "uint256"
        }
      ],
      "name": "ownerOf",
      "outputs": [
        {
          "internalType": "address",
          "name": "",
          "type": "address"
        }
      ],
      "stateMutability": "view",
      "type": "function"
    },
    {
      "inputs": [
        {
          "internalType": "address",
          "name": "from",
          "type": "address"
        },
        {
          "internalType": "address",
          "name": "to",
          "type": "address"
        },
        {
          "internalType": "uint256",
          "name": "tokenId",
          "type": "uint256"
        }
      ],
      "name": "safeTransferFrom",
      "outputs": [],
      "stateMutability": "nonpayable",
      "type": "function"
    },
    {
      "inputs": [
        {
          "internalType": "address",
          "name": "from",
          "type": "address"
        },
        {
          "internalType": "address",
          "name": "to",
          "type": "address"
        },
        {
          "internalType": "uint256",
          "name": "tokenId",
          "type": "uint256"
        },
        {
          "internalType": "bytes",
          "name": "_data",
          "type": "bytes"
        }
      ],
      "name": "safeTransferFrom",
      "outputs": [],
      "stateMutability": "nonpayable",
      "type": "function"
    },
    {
      "inputs": [
        {
          "internalType": "address",
          "name": "operator",
          "type": "address"
        },
        {
          "internalType": "bool",
          "name": "approved",
          "type": "bool"
        }
      ],
      "name": "setApprovalForAll",
      "outputs": [],
      "stateMutability": "nonpayable",
      "type": "function"
    },
    {
      "inputs": [
        {
          "internalType": "bytes4",
          "name": "interfaceId",
          "type": "bytes4"
        }
      ],
      "name": "supportsInterface",
      "outputs": [
        {
          "internalType": "bool",
          "name": "",
          "type": "bool"
        }
      ],
      "stateMutability": "view",
      "type": "function"
    },
    {
      "inputs": [],
      "name": "symbol",
      "outputs": [
        {
          "internalType": "string",
          "name": "",
          "type": "string"
        }
      ],
      "stateMutability": "view",
      "type": "function"
    },
    {
      "inputs": [
        {
          "internalType": "uint256",
          "name": "_tokenId",
          "type": "uint256"
        }
      ],
      "name": "tokenURI",
      "outputs": [
        {
          "internalType": "string",
          "name": "",
          "type": "string"
        }
      ],
      "stateMutability": "view",
      "type": "function"
    },
    {
      "inputs": [
        {
          "internalType": "address",
          "name": "from",
          "type": "address"
        },
        {
          "internalType": "address",
          "name": "to",
          "type": "address"
        },
        {
          "internalType": "uint256",
          "name": "tokenId",
          "type": "uint256"
        }
      ],
      "name": "transferFrom",
      "outputs": [],
      "stateMutability": "nonpayable",
      "type": "function"
    }
  ],
  "bytecode": "0x60806040523480156200001157600080fd5b50604051620046d0380380620046d0833981810160405281019062000037919062000604565b6040518060400160405280600c81526020017f4e6f5f4d6f5f4865726f657300000000000000000000000000000000000000008152506040518060400160405280600381526020017f4e4d4800000000000000000000000000000000000000000000000000000000008152508160009080519060200190620000bb92919062000397565b508060019080519060200190620000d492919062000397565b5050506040518060a0016040528085815260200184815260200183815260200183815260200182815250600a60008201518160000190805190602001906200011e92919062000397565b5060208201518160010190805190602001906200013d92919062000397565b5060408201518160020155606082015181600301556080820151816004015590505060005b8851811015620003885760076040518060c001604052808381526020018b8481518110620001b9577f4e487b7100000000000000000000000000000000000000000000000000000000600052603260045260246000fd5b602002602001015181526020018a848151811062000200577f4e487b7100000000000000000000000000000000000000000000000000000000600052603260045260246000fd5b6020026020010151815260200189848151811062000247577f4e487b7100000000000000000000000000000000000000000000000000000000600052603260045260246000fd5b602002602001015181526020018984815181106200028e577f4e487b7100000000000000000000000000000000000000000000000000000000600052603260045260246000fd5b60200260200101518152602001888481518110620002d5577f4e487b7100000000000000000000000000000000000000000000000000000000600052603260045260246000fd5b602002602001015181525090806001815401808255809150506001900390600052602060002090600602016000909190919091506000820151816000015560208201518160010190805190602001906200033192919062000397565b5060408201518160020190805190602001906200035092919062000397565b50606082015181600301556080820151816004015560a08201518160050155505060018162000380919062000822565b905062000162565b5050505050505050506200099c565b828054620003a590620008bf565b90600052602060002090601f016020900481019282620003c9576000855562000415565b82601f10620003e457805160ff191683800117855562000415565b8280016001018555821562000415579182015b8281111562000414578251825591602001919060010190620003f7565b5b50905062000424919062000428565b5090565b5b808211156200044357600081600090555060010162000429565b5090565b60006200045e620004588462000791565b6200075d565b9050808382526020820190508260005b85811015620004a25781518501620004878882620005c0565b8452602084019350602083019250506001810190506200046e565b5050509392505050565b6000620004c3620004bd84620007c0565b6200075d565b90508083825260208201905082856020860282011115620004e357600080fd5b60005b85811015620005175781620004fc8882620005ed565b845260208401935060208301925050600181019050620004e6565b5050509392505050565b6000620005386200053284620007ef565b6200075d565b9050828152602081018484840111156200055157600080fd5b6200055e84828562000889565b509392505050565b600082601f8301126200057857600080fd5b81516200058a84826020860162000447565b91505092915050565b600082601f830112620005a557600080fd5b8151620005b7848260208601620004ac565b91505092915050565b600082601f830112620005d257600080fd5b8151620005e484826020860162000521565b91505092915050565b600081519050620005fe8162000982565b92915050565b600080600080600080600080610100898b0312156200062257600080fd5b600089015167ffffffffffffffff8111156200063d57600080fd5b6200064b8b828c0162000566565b985050602089015167ffffffffffffffff8111156200066957600080fd5b620006778b828c0162000566565b975050604089015167ffffffffffffffff8111156200069557600080fd5b620006a38b828c0162000593565b965050606089015167ffffffffffffffff811115620006c157600080fd5b620006cf8b828c0162000593565b955050608089015167ffffffffffffffff811115620006ed57600080fd5b620006fb8b828c01620005c0565b94505060a089015167ffffffffffffffff8111156200071957600080fd5b620007278b828c01620005c0565b93505060c06200073a8b828c01620005ed565b92505060e06200074d8b828c01620005ed565b9150509295985092959890939650565b6000604051905081810181811067ffffffffffffffff8211171562000787576200078662000953565b5b8060405250919050565b600067ffffffffffffffff821115620007af57620007ae62000953565b5b602082029050602081019050919050565b600067ffffffffffffffff821115620007de57620007dd62000953565b5b602082029050602081019050919050565b600067ffffffffffffffff8211156200080d576200080c62000953565b5b601f19601f8301169050602081019050919050565b60006200082f826200087f565b91506200083c836200087f565b9250827fffffffffffffffffffffffffffffffffffffffffffffffffffffffffffffffff03821115620008745762000873620008f5565b5b828201905092915050565b6000819050919050565b60005b83811015620008a95780820151818401526020810190506200088c565b83811115620008b9576000848401525b50505050565b60006002820490506001821680620008d857607f821691505b60208210811415620008ef57620008ee62000924565b5b50919050565b7f4e487b7100000000000000000000000000000000000000000000000000000000600052601160045260246000fd5b7f4e487b7100000000000000000000000000000000000000000000000000000000600052602260045260246000fd5b7f4e487b7100000000000000000000000000000000000000000000000000000000600052604160045260246000fd5b6200098d816200087f565b81146200099957600080fd5b50565b613d2480620009ac6000396000f3fe608060405234801561001057600080fd5b50600436106101165760003560e01c806395d89b41116100a2578063b88d4fde11610071578063b88d4fde1461030e578063c87b56dd1461032a578063d4f24c5b1461035a578063e985e9c514610364578063f8b81ef71461039457610116565b806395d89b411461027d57806398da4c951461029b578063a22cb465146102d0578063a9c32679146102ec57610116565b806323b872dd116100e957806323b872dd146101b557806342842e0e146101d15780636352211e146101ed57806370a082311461021d5780637df124a11461024d57610116565b806301ffc9a71461011b57806306fdde031461014b578063081812fc14610169578063095ea7b314610199575b600080fd5b6101356004803603810190610130919061292b565b6103b0565b60405161014291906133ea565b60405180910390f35b610153610492565b6040516101609190613405565b60405180910390f35b610183600480360381019061017e919061297d565b610524565b6040516101909190613383565b60405180910390f35b6101b360048036038101906101ae91906128ef565b6105a9565b005b6101cf60048036038101906101ca91906127e9565b6106c1565b005b6101eb60048036038101906101e691906127e9565b610721565b005b6102076004803603810190610202919061297d565b610741565b6040516102149190613383565b60405180910390f35b61023760048036038101906102329190612784565b6107f3565b6040516102449190613729565b60405180910390f35b61026760048036038101906102629190612784565b6108ab565b6040516102749190613729565b60405180910390f35b6102856108c3565b6040516102929190613405565b60405180910390f35b6102b560048036038101906102b0919061297d565b610955565b6040516102c796959493929190613744565b60405180910390f35b6102ea60048036038101906102e591906128b3565b610aa1565b005b6102f4610ab7565b60405161030595949392919061347a565b60405180910390f35b61032860048036038101906103239190612838565b610beb565b005b610344600480360381019061033f919061297d565b610c4d565b6040516103519190613405565b60405180910390f35b610362610e68565b005b61037e600480360381019061037991906127ad565b6111b1565b60405161038b91906133ea565b60405180910390f35b6103ae60048036038101906103a9919061297d565b611245565b005b60007f80ac58cd000000000000000000000000000000000000000000000000000000007bffffffffffffffffffffffffffffffffffffffffffffffffffffffff1916827bffffffffffffffffffffffffffffffffffffffffffffffffffffffff1916148061047b57507f5b5e139f000000000000000000000000000000000000000000000000000000007bffffffffffffffffffffffffffffffffffffffffffffffffffffffff1916827bffffffffffffffffffffffffffffffffffffffffffffffffffffffff1916145b8061048b575061048a826115fe565b5b9050919050565b6060600080546104a190613a22565b80601f01602080910402602001604051908101604052809291908181526020018280546104cd90613a22565b801561051a5780601f106104ef5761010080835404028352916020019161051a565b820191906000526020600020905b8154815290600101906020018083116104fd57829003601f168201915b5050505050905090565b600061052f82611668565b61056e576040517f08c379a0000000000000000000000000000000000000000000000000000000008152600401610565906136a9565b60405180910390fd5b6004600083815260200190815260200160002060009054906101000a900473ffffffffffffffffffffffffffffffffffffffff169050919050565b60006105b482610741565b90508073ffffffffffffffffffffffffffffffffffffffff168373ffffffffffffffffffffffffffffffffffffffff161415610625576040517f08c379a000000000000000000000000000000000000000000000000000000000815260040161061c906136e9565b60405180910390fd5b8073ffffffffffffffffffffffffffffffffffffffff166106446116d4565b73ffffffffffffffffffffffffffffffffffffffff16148061067357506106728161066d6116d4565b6111b1565b5b6106b2576040517f08c379a00000000000000000000000000000000000000000000000000000000081526004016106a990613609565b60405180910390fd5b6106bc83836116dc565b505050565b6106d26106cc6116d4565b82611795565b610711576040517f08c379a000000000000000000000000000000000000000000000000000000000815260040161070890613709565b60405180910390fd5b61071c838383611873565b505050565b61073c83838360405180602001604052806000815250610beb565b505050565b6000806002600084815260200190815260200160002060009054906101000a900473ffffffffffffffffffffffffffffffffffffffff169050600073ffffffffffffffffffffffffffffffffffffffff168173ffffffffffffffffffffffffffffffffffffffff1614156107ea576040517f08c379a00000000000000000000000000000000000000000000000000000000081526004016107e190613649565b60405180910390fd5b80915050919050565b60008073ffffffffffffffffffffffffffffffffffffffff168273ffffffffffffffffffffffffffffffffffffffff161415610864576040517f08c379a000000000000000000000000000000000000000000000000000000000815260040161085b90613629565b60405180910390fd5b600360008373ffffffffffffffffffffffffffffffffffffffff1673ffffffffffffffffffffffffffffffffffffffff168152602001908152602001600020549050919050565b60096020528060005260406000206000915090505481565b6060600180546108d290613a22565b80601f01602080910402602001604051908101604052809291908181526020018280546108fe90613a22565b801561094b5780601f106109205761010080835404028352916020019161094b565b820191906000526020600020905b81548152906001019060200180831161092e57829003601f168201915b5050505050905090565b600860205280600052604060002060009150905080600001549080600101805461097e90613a22565b80601f01602080910402602001604051908101604052809291908181526020018280546109aa90613a22565b80156109f75780601f106109cc576101008083540402835291602001916109f7565b820191906000526020600020905b8154815290600101906020018083116109da57829003601f168201915b505050505090806002018054610a0c90613a22565b80601f0160208091040260200160405190810160405280929190818152602001828054610a3890613a22565b8015610a855780601f10610a5a57610100808354040283529160200191610a85565b820191906000526020600020905b815481529060010190602001808311610a6857829003601f168201915b5050505050908060030154908060040154908060050154905086565b610ab3610aac6116d4565b8383611acf565b5050565b600a806000018054610ac890613a22565b80601f0160208091040260200160405190810160405280929190818152602001828054610af490613a22565b8015610b415780601f10610b1657610100808354040283529160200191610b41565b820191906000526020600020905b815481529060010190602001808311610b2457829003601f168201915b505050505090806001018054610b5690613a22565b80601f0160208091040260200160405190810160405280929190818152602001828054610b8290613a22565b8015610bcf5780601f10610ba457610100808354040283529160200191610bcf565b820191906000526020600020905b815481529060010190602001808311610bb257829003601f168201915b5050505050908060020154908060030154908060040154905085565b610bfc610bf66116d4565b83611795565b610c3b576040517f08c379a0000000000000000000000000000000000000000000000000000000008152600401610c3290613709565b60405180910390fd5b610c4784848484611c3c565b50505050565b60606000600860008481526020019081526020016000206040518060c001604052908160008201548152602001600182018054610c8990613a22565b80601f0160208091040260200160405190810160405280929190818152602001828054610cb590613a22565b8015610d025780601f10610cd757610100808354040283529160200191610d02565b820191906000526020600020905b815481529060010190602001808311610ce557829003601f168201915b50505050508152602001600282018054610d1b90613a22565b80601f0160208091040260200160405190810160405280929190818152602001828054610d4790613a22565b8015610d945780601f10610d6957610100808354040283529160200191610d94565b820191906000526020600020905b815481529060010190602001808311610d7757829003601f168201915b50505050508152602001600382015481526020016004820154815260200160058201548152505090506000610dcc8260600151611c98565b90506000610ddd8360800151611c98565b90506000610dee8460a00151611c98565b90506000610e348560200151610e0389611c98565b8760400151878787604051602001610e20969594939291906132bc565b604051602081830303815290604052611e45565b9050600081604051602001610e499190613361565b6040516020818303038152906040529050809650505050505050919050565b6000600960003373ffffffffffffffffffffffffffffffffffffffff1673ffffffffffffffffffffffffffffffffffffffff1681526020019081526020016000205490506000600860008381526020019081526020016000209050610f7b6040518060600160405280603c8152602001613cb3603c9139826001018054610eee90613a22565b80601f0160208091040260200160405190810160405280929190818152602001828054610f1a90613a22565b8015610f675780601f10610f3c57610100808354040283529160200191610f67565b820191906000526020600020905b815481529060010190602001808311610f4a57829003601f168201915b505050505083600301548460050154611ff0565b6110536040518060400160405280601b81526020017f426f73732025732068617320257320485020616e642025732041440000000000815250600a6000018054610fc490613a22565b80601f0160208091040260200160405190810160405280929190818152602001828054610ff090613a22565b801561103d5780601f106110125761010080835404028352916020019161103d565b820191906000526020600020905b81548152906001019060200180831161102057829003601f168201915b5050505050600a60020154600a60040154611ff0565b600081600301541161109a576040517f08c379a000000000000000000000000000000000000000000000000000000000815260040161109190613669565b60405180910390fd5b6000600a60020154116110e2576040517f08c379a00000000000000000000000000000000000000000000000000000000081526004016110d990613569565b60405180910390fd5b8060050154600a600201541015611103576000600a60020181905550611122565b8060050154600a600201546111189190613938565b600a600201819055505b600a60040154816003015410156111425760008160030181905550611160565b600a6004015481600301546111579190613938565b81600301819055505b611187604051806060016040528060258152602001613bf860259139600a60020154612092565b6111ad604051806060016040528060288152602001613c5d602891398260030154612092565b5050565b6000600560008473ffffffffffffffffffffffffffffffffffffffff1673ffffffffffffffffffffffffffffffffffffffff16815260200190815260200160002060008373ffffffffffffffffffffffffffffffffffffffff1673ffffffffffffffffffffffffffffffffffffffff16815260200190815260200160002060009054906101000a900460ff16905092915050565b6000611251600661212e565b905061125d338261213c565b6040518060c00160405280838152602001600784815481106112a8577f4e487b7100000000000000000000000000000000000000000000000000000000600052603260045260246000fd5b906000526020600020906006020160010180546112c490613a22565b80601f01602080910402602001604051908101604052809291908181526020018280546112f090613a22565b801561133d5780601f106113125761010080835404028352916020019161133d565b820191906000526020600020905b81548152906001019060200180831161132057829003601f168201915b5050505050815260200160078481548110611381577f4e487b7100000000000000000000000000000000000000000000000000000000600052603260045260246000fd5b9060005260206000209060060201600201805461139d90613a22565b80601f01602080910402602001604051908101604052809291908181526020018280546113c990613a22565b80156114165780601f106113eb57610100808354040283529160200191611416565b820191906000526020600020905b8154815290600101906020018083116113f957829003601f168201915b505050505081526020016007848154811061145a577f4e487b7100000000000000000000000000000000000000000000000000000000600052603260045260246000fd5b9060005260206000209060060201600301548152602001600784815481106114ab577f4e487b7100000000000000000000000000000000000000000000000000000000600052603260045260246000fd5b9060005260206000209060060201600401548152602001600784815481106114fc577f4e487b7100000000000000000000000000000000000000000000000000000000600052603260045260246000fd5b9060005260206000209060060201600501548152506008600083815260200190815260200160002060008201518160000155602082015181600101908051906020019061154a929190612610565b506040820151816002019080519060200190611567929190612610565b50606082015181600301556080820151816004015560a082015181600501559050506115ac6040518060600160405280602e8152602001613c85602e9139828461215a565b80600960003373ffffffffffffffffffffffffffffffffffffffff1673ffffffffffffffffffffffffffffffffffffffff168152602001908152602001600020819055506115fa60066121f9565b5050565b60007f01ffc9a7000000000000000000000000000000000000000000000000000000007bffffffffffffffffffffffffffffffffffffffffffffffffffffffff1916827bffffffffffffffffffffffffffffffffffffffffffffffffffffffff1916149050919050565b60008073ffffffffffffffffffffffffffffffffffffffff166002600084815260200190815260200160002060009054906101000a900473ffffffffffffffffffffffffffffffffffffffff1673ffffffffffffffffffffffffffffffffffffffff1614159050919050565b600033905090565b816004600083815260200190815260200160002060006101000a81548173ffffffffffffffffffffffffffffffffffffffff021916908373ffffffffffffffffffffffffffffffffffffffff160217905550808273ffffffffffffffffffffffffffffffffffffffff1661174f83610741565b73ffffffffffffffffffffffffffffffffffffffff167f8c5be1e5ebec7d5bd14f71427d1e84f3dd0314c0f7b2291e5b200ac8c7c3b92560405160405180910390a45050565b60006117a082611668565b6117df576040517f08c379a00000000000000000000000000000000000000000000000000000000081526004016117d6906135e9565b60405180910390fd5b60006117ea83610741565b90508073ffffffffffffffffffffffffffffffffffffffff168473ffffffffffffffffffffffffffffffffffffffff16148061185957508373ffffffffffffffffffffffffffffffffffffffff1661184184610524565b73ffffffffffffffffffffffffffffffffffffffff16145b8061186a575061186981856111b1565b5b91505092915050565b8273ffffffffffffffffffffffffffffffffffffffff1661189382610741565b73ffffffffffffffffffffffffffffffffffffffff16146118e9576040517f08c379a00000000000000000000000000000000000000000000000000000000081526004016118e0906136c9565b60405180910390fd5b600073ffffffffffffffffffffffffffffffffffffffff168273ffffffffffffffffffffffffffffffffffffffff161415611959576040517f08c379a0000000000000000000000000000000000000000000000000000000008152600401611950906135a9565b60405180910390fd5b61196483838361220f565b61196f6000826116dc565b6001600360008573ffffffffffffffffffffffffffffffffffffffff1673ffffffffffffffffffffffffffffffffffffffff16815260200190815260200160002060008282546119bf9190613938565b925050819055506001600360008473ffffffffffffffffffffffffffffffffffffffff1673ffffffffffffffffffffffffffffffffffffffff1681526020019081526020016000206000828254611a169190613857565b92505081905550816002600083815260200190815260200160002060006101000a81548173ffffffffffffffffffffffffffffffffffffffff021916908373ffffffffffffffffffffffffffffffffffffffff160217905550808273ffffffffffffffffffffffffffffffffffffffff168473ffffffffffffffffffffffffffffffffffffffff167fddf252ad1be2c89b69c2b068fc378daa952ba7f163c4a11628f55a4df523b3ef60405160405180910390a4505050565b8173ffffffffffffffffffffffffffffffffffffffff168373ffffffffffffffffffffffffffffffffffffffff161415611b3e576040517f08c379a0000000000000000000000000000000000000000000000000000000008152600401611b35906135c9565b60405180910390fd5b80600560008573ffffffffffffffffffffffffffffffffffffffff1673ffffffffffffffffffffffffffffffffffffffff16815260200190815260200160002060008473ffffffffffffffffffffffffffffffffffffffff1673ffffffffffffffffffffffffffffffffffffffff16815260200190815260200160002060006101000a81548160ff0219169083151502179055508173ffffffffffffffffffffffffffffffffffffffff168373ffffffffffffffffffffffffffffffffffffffff167f17307eab39ab6107e8899845ad3d59bd9653f200f220920489ca2b5937696c3183604051611c2f91906133ea565b60405180910390a3505050565b611c47848484611873565b611c5384848484612214565b611c92576040517f08c379a0000000000000000000000000000000000000000000000000000000008152600401611c8990613549565b60405180910390fd5b50505050565b60606000821415611ce0576040518060400160405280600181526020017f30000000000000000000000000000000000000000000000000000000000000008152509050611e40565b600082905060005b60008214611d12578080611cfb90613a54565b915050600a82611d0b91906138ad565b9150611ce8565b60008167ffffffffffffffff811115611d54577f4e487b7100000000000000000000000000000000000000000000000000000000600052604160045260246000fd5b6040519080825280601f01601f191660200182016040528015611d865781602001600182028036833780820191505090505b5090505b60008514611e3957600182611d9f9190613938565b9150600a85611dae9190613a9d565b6030611dba9190613857565b60f81b818381518110611df6577f4e487b7100000000000000000000000000000000000000000000000000000000600052603260045260246000fd5b60200101907effffffffffffffffffffffffffffffffffffffffffffffffffffffffffffff1916908160001a905350600a85611e3291906138ad565b9450611d8a565b8093505050505b919050565b6060600082511415611e6857604051806020016040528060008152509050611feb565b6000604051806060016040528060408152602001613c1d6040913990506000600360028551611e979190613857565b611ea191906138ad565b6004611ead91906138de565b90506000602082611ebe9190613857565b67ffffffffffffffff811115611efd577f4e487b7100000000000000000000000000000000000000000000000000000000600052604160045260246000fd5b6040519080825280601f01601f191660200182016040528015611f2f5781602001600182028036833780820191505090505b509050818152600183018586518101602084015b81831015611faa576003830192508251603f8160121c1685015160f81b8252600182019150603f81600c1c1685015160f81b8252600182019150603f8160061c1685015160f81b8252600182019150603f811685015160f81b825260018201915050611f43565b600389510660018114611fc45760028114611fd457611fdf565b613d3d60f01b6002830352611fdf565b603d60f81b60018303525b50505050508093505050505b919050565b61208c8484848460405160240161200a9493929190613427565b6040516020818303038152906040527fd5cf17d0000000000000000000000000000000000000000000000000000000007bffffffffffffffffffffffffffffffffffffffffffffffffffffffff19166020820180517bffffffffffffffffffffffffffffffffffffffffffffffffffffffff83818316178352505050506123ab565b50505050565b61212a82826040516024016120a89291906134db565b6040516020818303038152906040527f9710a9d0000000000000000000000000000000000000000000000000000000007bffffffffffffffffffffffffffffffffffffffffffffffffffffffff19166020820180517bffffffffffffffffffffffffffffffffffffffffffffffffffffffff83818316178352505050506123ab565b5050565b600081600001549050919050565b6121568282604051806020016040528060008152506123d4565b5050565b6121f48383836040516024016121729392919061350b565b6040516020818303038152906040527f969cdd03000000000000000000000000000000000000000000000000000000007bffffffffffffffffffffffffffffffffffffffffffffffffffffffff19166020820180517bffffffffffffffffffffffffffffffffffffffffffffffffffffffff83818316178352505050506123ab565b505050565b6001816000016000828254019250508190555050565b505050565b60006122358473ffffffffffffffffffffffffffffffffffffffff1661242f565b1561239e578373ffffffffffffffffffffffffffffffffffffffff1663150b7a0261225e6116d4565b8786866040518563ffffffff1660e01b8152600401612280949392919061339e565b602060405180830381600087803b15801561229a57600080fd5b505af19250505080156122cb57506040513d601f19601f820116820180604052508101906122c89190612954565b60015b61234e573d80600081146122fb576040519150601f19603f3d011682016040523d82523d6000602084013e612300565b606091505b50600081511415612346576040517f08c379a000000000000000000000000000000000000000000000000000000000815260040161233d90613549565b60405180910390fd5b805181602001fd5b63150b7a0260e01b7bffffffffffffffffffffffffffffffffffffffffffffffffffffffff1916817bffffffffffffffffffffffffffffffffffffffffffffffffffffffff1916149150506123a3565b600190505b949350505050565b60008151905060006a636f6e736f6c652e6c6f679050602083016000808483855afa5050505050565b6123de8383612442565b6123eb6000848484612214565b61242a576040517f08c379a000000000000000000000000000000000000000000000000000000000815260040161242190613549565b60405180910390fd5b505050565b600080823b905060008111915050919050565b600073ffffffffffffffffffffffffffffffffffffffff168273ffffffffffffffffffffffffffffffffffffffff1614156124b2576040517f08c379a00000000000000000000000000000000000000000000000000000000081526004016124a990613689565b60405180910390fd5b6124bb81611668565b156124fb576040517f08c379a00000000000000000000000000000000000000000000000000000000081526004016124f290613589565b60405180910390fd5b6125076000838361220f565b6001600360008473ffffffffffffffffffffffffffffffffffffffff1673ffffffffffffffffffffffffffffffffffffffff16815260200190815260200160002060008282546125579190613857565b92505081905550816002600083815260200190815260200160002060006101000a81548173ffffffffffffffffffffffffffffffffffffffff021916908373ffffffffffffffffffffffffffffffffffffffff160217905550808273ffffffffffffffffffffffffffffffffffffffff16600073ffffffffffffffffffffffffffffffffffffffff167fddf252ad1be2c89b69c2b068fc378daa952ba7f163c4a11628f55a4df523b3ef60405160405180910390a45050565b82805461261c90613a22565b90600052602060002090601f01602090048101928261263e5760008555612685565b82601f1061265757805160ff1916838001178555612685565b82800160010185558215612685579182015b82811115612684578251825591602001919060010190612669565b5b5090506126929190612696565b5090565b5b808211156126af576000816000905550600101612697565b5090565b60006126c66126c1846137e4565b6137b3565b9050828152602081018484840111156126de57600080fd5b6126e98482856139e0565b509392505050565b60008135905061270081613b9b565b92915050565b60008135905061271581613bb2565b92915050565b60008135905061272a81613bc9565b92915050565b60008151905061273f81613bc9565b92915050565b600082601f83011261275657600080fd5b81356127668482602086016126b3565b91505092915050565b60008135905061277e81613be0565b92915050565b60006020828403121561279657600080fd5b60006127a4848285016126f1565b91505092915050565b600080604083850312156127c057600080fd5b60006127ce858286016126f1565b92505060206127df858286016126f1565b9150509250929050565b6000806000606084860312156127fe57600080fd5b600061280c868287016126f1565b935050602061281d868287016126f1565b925050604061282e8682870161276f565b9150509250925092565b6000806000806080858703121561284e57600080fd5b600061285c878288016126f1565b945050602061286d878288016126f1565b935050604061287e8782880161276f565b925050606085013567ffffffffffffffff81111561289b57600080fd5b6128a787828801612745565b91505092959194509250565b600080604083850312156128c657600080fd5b60006128d4858286016126f1565b92505060206128e585828601612706565b9150509250929050565b6000806040838503121561290257600080fd5b6000612910858286016126f1565b92505060206129218582860161276f565b9150509250929050565b60006020828403121561293d57600080fd5b600061294b8482850161271b565b91505092915050565b60006020828403121561296657600080fd5b600061297484828501612730565b91505092915050565b60006020828403121561298f57600080fd5b600061299d8482850161276f565b91505092915050565b6129af8161396c565b82525050565b6129be8161397e565b82525050565b60006129cf82613814565b6129d9818561382a565b93506129e98185602086016139ef565b6129f281613b8a565b840191505092915050565b6000612a088261381f565b612a12818561383b565b9350612a228185602086016139ef565b612a2b81613b8a565b840191505092915050565b6000612a418261381f565b612a4b818561384c565b9350612a5b8185602086016139ef565b80840191505092915050565b6000612a74600b8361384c565b91507f202d2d204e465420233a200000000000000000000000000000000000000000006000830152600b82019050919050565b6000612ab460328361383b565b91507f4552433732313a207472616e7366657220746f206e6f6e20455243373231526560008301527f63656976657220696d706c656d656e74657200000000000000000000000000006020830152604082019050919050565b6000612b1a60288361383b565b91507f4572726f723a20626f7373206d757374206861766520485020746f206174746160008301527f636b20626f73732e0000000000000000000000000000000000000000000000006020830152604082019050919050565b6000612b80601c8361383b565b91507f4552433732313a20746f6b656e20616c7265616479206d696e746564000000006000830152602082019050919050565b6000612bc0600e8361384c565b91507f2c20226d61785f76616c7565223a0000000000000000000000000000000000006000830152600e82019050919050565b6000612c0060248361383b565b91507f4552433732313a207472616e7366657220746f20746865207a65726f2061646460008301527f72657373000000000000000000000000000000000000000000000000000000006020830152604082019050919050565b6000612c6660198361383b565b91507f4552433732313a20617070726f766520746f2063616c6c6572000000000000006000830152602082019050919050565b6000612ca6602c8361383b565b91507f4552433732313a206f70657261746f7220717565727920666f72206e6f6e657860008301527f697374656e7420746f6b656e00000000000000000000000000000000000000006020830152604082019050919050565b6000612d0c60388361383b565b91507f4552433732313a20617070726f76652063616c6c6572206973206e6f74206f7760008301527f6e6572206e6f7220617070726f76656420666f7220616c6c00000000000000006020830152604082019050919050565b6000612d72602a8361383b565b91507f4552433732313a2062616c616e636520717565727920666f7220746865207a6560008301527f726f2061646472657373000000000000000000000000000000000000000000006020830152604082019050919050565b6000612dd860298361383b565b91507f4552433732313a206f776e657220717565727920666f72206e6f6e657869737460008301527f656e7420746f6b656e00000000000000000000000000000000000000000000006020830152604082019050919050565b6000612e3e60628361384c565b91507f222c20226465736372697074696f6e223a20225468697320697320616e204e4660008301527f542074686174206c6574732070656f706c6520706c617920696e20746865206760208301527f616d65204d657461766572736520536c6179657221222c2022696d616765223a60408301527f20220000000000000000000000000000000000000000000000000000000000006060830152606282019050919050565b6000612ef0602d8361383b565b91507f4572726f723a20636861726163746572206d757374206861766520485020746f60008301527f2061747461636b20626f73732e000000000000000000000000000000000000006020830152604082019050919050565b6000612f5660048361384c565b91507f7d205d7d000000000000000000000000000000000000000000000000000000006000830152600482019050919050565b6000612f9660208361383b565b91507f4552433732313a206d696e7420746f20746865207a65726f20616464726573736000830152602082019050919050565b6000612fd6602c8361383b565b91507f4552433732313a20617070726f76656420717565727920666f72206e6f6e657860008301527f697374656e7420746f6b656e00000000000000000000000000000000000000006020830152604082019050919050565b600061303c60298361383b565b91507f4552433732313a207472616e73666572206f6620746f6b656e2074686174206960008301527f73206e6f74206f776e00000000000000000000000000000000000000000000006020830152604082019050919050565b60006130a2600a8361384c565b91507f7b226e616d65223a2022000000000000000000000000000000000000000000006000830152600a82019050919050565b60006130e260218361383b565b91507f4552433732313a20617070726f76616c20746f2063757272656e74206f776e6560008301527f72000000000000000000000000000000000000000000000000000000000000006020830152604082019050919050565b6000613148601d8361384c565b91507f646174613a6170706c69636174696f6e2f6a736f6e3b6261736536342c0000006000830152601d82019050919050565b600061318860318361383b565b91507f4552433732313a207472616e736665722063616c6c6572206973206e6f74206f60008301527f776e6572206e6f7220617070726f7665640000000000000000000000000000006020830152604082019050919050565b60006131ee603d8361384c565b91507f222c202261747472696275746573223a205b207b202274726169745f7479706560008301527f223a20224865616c746820506f696e7473222c202276616c7565223a200000006020830152603d82019050919050565b6000613254602d8361384c565b91507f7d2c207b202274726169745f74797065223a202241747461636b2044616d616760008301527f65222c202276616c7565223a20000000000000000000000000000000000000006020830152602d82019050919050565b6132b6816139d6565b82525050565b60006132c782613095565b91506132d38289612a36565b91506132de82612a67565b91506132ea8288612a36565b91506132f582612e31565b91506133018287612a36565b915061330c826131e1565b91506133188286612a36565b915061332382612bb3565b915061332f8285612a36565b915061333a82613247565b91506133468284612a36565b915061335182612f49565b9150819050979650505050505050565b600061336c8261313b565b91506133788284612a36565b915081905092915050565b600060208201905061339860008301846129a6565b92915050565b60006080820190506133b360008301876129a6565b6133c060208301866129a6565b6133cd60408301856132ad565b81810360608301526133df81846129c4565b905095945050505050565b60006020820190506133ff60008301846129b5565b92915050565b6000602082019050818103600083015261341f81846129fd565b905092915050565b6000608082019050818103600083015261344181876129fd565b9050818103602083015261345581866129fd565b905061346460408301856132ad565b61347160608301846132ad565b95945050505050565b600060a082019050818103600083015261349481886129fd565b905081810360208301526134a881876129fd565b90506134b760408301866132ad565b6134c460608301856132ad565b6134d160808301846132ad565b9695505050505050565b600060408201905081810360008301526134f581856129fd565b905061350460208301846132ad565b9392505050565b6000606082019050818103600083015261352581866129fd565b905061353460208301856132ad565b61354160408301846132ad565b949350505050565b6000602082019050818103600083015261356281612aa7565b9050919050565b6000602082019050818103600083015261358281612b0d565b9050919050565b600060208201905081810360008301526135a281612b73565b9050919050565b600060208201905081810360008301526135c281612bf3565b9050919050565b600060208201905081810360008301526135e281612c59565b9050919050565b6000602082019050818103600083015261360281612c99565b9050919050565b6000602082019050818103600083015261362281612cff565b9050919050565b6000602082019050818103600083015261364281612d65565b9050919050565b6000602082019050818103600083015261366281612dcb565b9050919050565b6000602082019050818103600083015261368281612ee3565b9050919050565b600060208201905081810360008301526136a281612f89565b9050919050565b600060208201905081810360008301526136c281612fc9565b9050919050565b600060208201905081810360008301526136e28161302f565b9050919050565b60006020820190508181036000830152613702816130d5565b9050919050565b600060208201905081810360008301526137228161317b565b9050919050565b600060208201905061373e60008301846132ad565b92915050565b600060c08201905061375960008301896132ad565b818103602083015261376b81886129fd565b9050818103604083015261377f81876129fd565b905061378e60608301866132ad565b61379b60808301856132ad565b6137a860a08301846132ad565b979650505050505050565b6000604051905081810181811067ffffffffffffffff821117156137da576137d9613b5b565b5b8060405250919050565b600067ffffffffffffffff8211156137ff576137fe613b5b565b5b601f19601f8301169050602081019050919050565b600081519050919050565b600081519050919050565b600082825260208201905092915050565b600082825260208201905092915050565b600081905092915050565b6000613862826139d6565b915061386d836139d6565b9250827fffffffffffffffffffffffffffffffffffffffffffffffffffffffffffffffff038211156138a2576138a1613ace565b5b828201905092915050565b60006138b8826139d6565b91506138c3836139d6565b9250826138d3576138d2613afd565b5b828204905092915050565b60006138e9826139d6565b91506138f4836139d6565b9250817fffffffffffffffffffffffffffffffffffffffffffffffffffffffffffffffff048311821515161561392d5761392c613ace565b5b828202905092915050565b6000613943826139d6565b915061394e836139d6565b92508282101561396157613960613ace565b5b828203905092915050565b6000613977826139b6565b9050919050565b60008115159050919050565b60007fffffffff0000000000000000000000000000000000000000000000000000000082169050919050565b600073ffffffffffffffffffffffffffffffffffffffff82169050919050565b6000819050919050565b82818337600083830152505050565b60005b83811015613a0d5780820151818401526020810190506139f2565b83811115613a1c576000848401525b50505050565b60006002820490506001821680613a3a57607f821691505b60208210811415613a4e57613a4d613b2c565b5b50919050565b6000613a5f826139d6565b91507fffffffffffffffffffffffffffffffffffffffffffffffffffffffffffffffff821415613a9257613a91613ace565b5b600182019050919050565b6000613aa8826139d6565b9150613ab3836139d6565b925082613ac357613ac2613afd565b5b828206905092915050565b7f4e487b7100000000000000000000000000000000000000000000000000000000600052601160045260246000fd5b7f4e487b7100000000000000000000000000000000000000000000000000000000600052601260045260246000fd5b7f4e487b7100000000000000000000000000000000000000000000000000000000600052602260045260246000fd5b7f4e487b7100000000000000000000000000000000000000000000000000000000600052604160045260246000fd5b6000601f19601f8301169050919050565b613ba48161396c565b8114613baf57600080fd5b50565b613bbb8161397e565b8114613bc657600080fd5b50565b613bd28161398a565b8114613bdd57600080fd5b50565b613be9816139d6565b8114613bf457600080fd5b5056fe506c617965722061747461636b656420626f73732e204e657720626f73732068703a2025734142434445464748494a4b4c4d4e4f505152535455565758595a6162636465666768696a6b6c6d6e6f707172737475767778797a303132333435363738392b2f426f73732061747461636b656420706c617965722e204e657720706c617965722068703a2025730a4d696e746564204e465420772f20746f6b656e496420257320616e6420636861726163746572496e6465782025730a506c6179657220772f206368617261637465722025732061626f757420746f2061747461636b2e2048617320257320485020616e64202573204144a2646970667358221220e1c62c62e394cb03bbf251db470fac7f19789676bae71be36551d154a1700dfd64736f6c63430008000033",
  "linkReferences": {},
  "deployedLinkReferences": {}
}