{
  "_format": "hh-sol-artifact-1",
  "contractName": "MyEpicGame",
  "sourceName": "contracts/MyEpicGame.sol",
  "abi": [
    {
      "inputs": [
        {
          "internalType": "string[]",
          "name": "characterNames",
          "type": "string[]"
        },
        {
          "internalType": "string[]",
          "name": "characterImageURIs",
          "type": "string[]"
        },
        {
          "internalType": "uint256[]",
          "name": "characterHp",
          "type": "uint256[]"
        },
        {
          "internalType": "uint256[]",
          "name": "characterAttackDmg",
          "type": "uint256[]"
        }
      ],
      "stateMutability": "nonpayable",
      "type": "constructor"
    },
    {
      "anonymous": false,
      "inputs": [
        {
          "indexed": true,
          "internalType": "address",
          "name": "owner",
          "type": "address"
        },
        {
          "indexed": true,
          "internalType": "address",
          "name": "approved",
          "type": "address"
        },
        {
          "indexed": true,
          "internalType": "uint256",
          "name": "tokenId",
          "type": "uint256"
        }
      ],
      "name": "Approval",
      "type": "event"
    },
    {
      "anonymous": false,
      "inputs": [
        {
          "indexed": true,
          "internalType": "address",
          "name": "owner",
          "type": "address"
        },
        {
          "indexed": true,
          "internalType": "address",
          "name": "operator",
          "type": "address"
        },
        {
          "indexed": false,
          "internalType": "bool",
          "name": "approved",
          "type": "bool"
        }
      ],
      "name": "ApprovalForAll",
      "type": "event"
    },
    {
      "anonymous": false,
      "inputs": [
        {
          "indexed": true,
          "internalType": "address",
          "name": "from",
          "type": "address"
        },
        {
          "indexed": true,
          "internalType": "address",
          "name": "to",
          "type": "address"
        },
        {
          "indexed": true,
          "internalType": "uint256",
          "name": "tokenId",
          "type": "uint256"
        }
      ],
      "name": "Transfer",
      "type": "event"
    },
    {
      "inputs": [
        {
          "internalType": "address",
          "name": "to",
          "type": "address"
        },
        {
          "internalType": "uint256",
          "name": "tokenId",
          "type": "uint256"
        }
      ],
      "name": "approve",
      "outputs": [],
      "stateMutability": "nonpayable",
      "type": "function"
    },
    {
      "inputs": [
        {
          "internalType": "address",
          "name": "owner",
          "type": "address"
        }
      ],
      "name": "balanceOf",
      "outputs": [
        {
          "internalType": "uint256",
          "name": "",
          "type": "uint256"
        }
      ],
      "stateMutability": "view",
      "type": "function"
    },
    {
      "inputs": [
        {
          "internalType": "uint256",
          "name": "tokenId",
          "type": "uint256"
        }
      ],
      "name": "getApproved",
      "outputs": [
        {
          "internalType": "address",
          "name": "",
          "type": "address"
        }
      ],
      "stateMutability": "view",
      "type": "function"
    },
    {
      "inputs": [
        {
          "internalType": "address",
          "name": "owner",
          "type": "address"
        },
        {
          "internalType": "address",
          "name": "operator",
          "type": "address"
        }
      ],
      "name": "isApprovedForAll",
      "outputs": [
        {
          "internalType": "bool",
          "name": "",
          "type": "bool"
        }
      ],
      "stateMutability": "view",
      "type": "function"
    },
    {
      "inputs": [
        {
          "internalType": "uint256",
          "name": "_characterIndex",
          "type": "uint256"
        }
      ],
      "name": "mintCharacterNFT",
      "outputs": [],
      "stateMutability": "nonpayable",
      "type": "function"
    },
    {
      "inputs": [],
      "name": "name",
      "outputs": [
        {
          "internalType": "string",
          "name": "",
          "type": "string"
        }
      ],
      "stateMutability": "view",
      "type": "function"
    },
    {
      "inputs": [
        {
          "internalType": "uint256",
          "name": "",
          "type": "uint256"
        }
      ],
      "name": "nftHolderAttributes",
      "outputs": [
        {
          "internalType": "uint256",
          "name": "characterIndex",
          "type": "uint256"
        },
        {
          "internalType": "string",
          "name": "name",
          "type": "string"
        },
        {
          "internalType": "string",
          "name": "imageURI",
          "type": "string"
        },
        {
          "internalType": "uint256",
          "name": "hp",
          "type": "uint256"
        },
        {
          "internalType": "uint256",
          "name": "maxHp",
          "type": "uint256"
        },
        {
          "internalType": "uint256",
          "name": "attackDamage",
          "type": "uint256"
        }
      ],
      "stateMutability": "view",
      "type": "function"
    },
    {
      "inputs": [
        {
          "internalType": "address",
          "name": "",
          "type": "address"
        }
      ],
      "name": "nftHolders",
      "outputs": [
        {
          "internalType": "uint256",
          "name": "",
          "type": "uint256"
        }
      ],
      "stateMutability": "view",
      "type": "function"
    },
    {
      "inputs": [
        {
          "internalType": "uint256",
          "name": "tokenId",
          "type": "uint256"
        }
      ],
      "name": "ownerOf",
      "outputs": [
        {
          "internalType": "address",
          "name": "",
          "type": "address"
        }
      ],
      "stateMutability": "view",
      "type": "function"
    },
    {
      "inputs": [
        {
          "internalType": "address",
          "name": "from",
          "type": "address"
        },
        {
          "internalType": "address",
          "name": "to",
          "type": "address"
        },
        {
          "internalType": "uint256",
          "name": "tokenId",
          "type": "uint256"
        }
      ],
      "name": "safeTransferFrom",
      "outputs": [],
      "stateMutability": "nonpayable",
      "type": "function"
    },
    {
      "inputs": [
        {
          "internalType": "address",
          "name": "from",
          "type": "address"
        },
        {
          "internalType": "address",
          "name": "to",
          "type": "address"
        },
        {
          "internalType": "uint256",
          "name": "tokenId",
          "type": "uint256"
        },
        {
          "internalType": "bytes",
          "name": "_data",
          "type": "bytes"
        }
      ],
      "name": "safeTransferFrom",
      "outputs": [],
      "stateMutability": "nonpayable",
      "type": "function"
    },
    {
      "inputs": [
        {
          "internalType": "address",
          "name": "operator",
          "type": "address"
        },
        {
          "internalType": "bool",
          "name": "approved",
          "type": "bool"
        }
      ],
      "name": "setApprovalForAll",
      "outputs": [],
      "stateMutability": "nonpayable",
      "type": "function"
    },
    {
      "inputs": [
        {
          "internalType": "bytes4",
          "name": "interfaceId",
          "type": "bytes4"
        }
      ],
      "name": "supportsInterface",
      "outputs": [
        {
          "internalType": "bool",
          "name": "",
          "type": "bool"
        }
      ],
      "stateMutability": "view",
      "type": "function"
    },
    {
      "inputs": [],
      "name": "symbol",
      "outputs": [
        {
          "internalType": "string",
          "name": "",
          "type": "string"
        }
      ],
      "stateMutability": "view",
      "type": "function"
    },
    {
      "inputs": [
        {
          "internalType": "uint256",
          "name": "tokenId",
          "type": "uint256"
        }
      ],
      "name": "tokenURI",
      "outputs": [
        {
          "internalType": "string",
          "name": "",
          "type": "string"
        }
      ],
      "stateMutability": "view",
      "type": "function"
    },
    {
      "inputs": [
        {
          "internalType": "address",
          "name": "from",
          "type": "address"
        },
        {
          "internalType": "address",
          "name": "to",
          "type": "address"
        },
        {
          "internalType": "uint256",
          "name": "tokenId",
          "type": "uint256"
        }
      ],
      "name": "transferFrom",
      "outputs": [],
      "stateMutability": "nonpayable",
      "type": "function"
    }
  ],
  "bytecode": "0x60806040523480156200001157600080fd5b5060405162003bbf38038062003bbf83398181016040528101906200003791906200086d565b6040518060400160405280600c81526020017f4e6f5f4d6f5f4865726f657300000000000000000000000000000000000000008152506040518060400160405280600381526020017f4e4d4800000000000000000000000000000000000000000000000000000000008152508160009080519060200190620000bb92919062000600565b508060019080519060200190620000d492919062000600565b50505060005b8451811015620004f35760076040518060c0016040528083815260200187848151811062000131577f4e487b7100000000000000000000000000000000000000000000000000000000600052603260045260246000fd5b6020026020010151815260200186848151811062000178577f4e487b7100000000000000000000000000000000000000000000000000000000600052603260045260246000fd5b60200260200101518152602001858481518110620001bf577f4e487b7100000000000000000000000000000000000000000000000000000000600052603260045260246000fd5b6020026020010151815260200185848151811062000206577f4e487b7100000000000000000000000000000000000000000000000000000000600052603260045260246000fd5b602002602001015181526020018484815181106200024d577f4e487b7100000000000000000000000000000000000000000000000000000000600052603260045260246000fd5b60200260200101518152509080600181540180825580915050600190039060005260206000209060060201600090919091909150600082015181600001556020820151816001019080519060200190620002a992919062000600565b506040820151816002019080519060200190620002c892919062000600565b50606082015181600301556080820151816004015560a08201518160050155505060006007828154811062000326577f4e487b7100000000000000000000000000000000000000000000000000000000600052603260045260246000fd5b90600052602060002090600602016040518060c0016040529081600082015481526020016001820180546200035b9062000b6f565b80601f0160208091040260200160405190810160405280929190818152602001828054620003899062000b6f565b8015620003da5780601f10620003ae57610100808354040283529160200191620003da565b820191906000526020600020905b815481529060010190602001808311620003bc57829003601f168201915b50505050508152602001600282018054620003f59062000b6f565b80601f0160208091040260200160405190810160405280929190818152602001828054620004239062000b6f565b8015620004745780601f10620004485761010080835404028352916020019162000474565b820191906000526020600020905b8154815290600101906020018083116200045657829003601f168201915b5050505050815260200160038201548152602001600482015481526020016005820154815250509050620004db60405180606001604052806025815260200162003b9a602591398260200151836060015184604001516200051560201b62000fcb1760201c565b50600181620004eb919062000ad2565b9050620000da565b506200050b6006620005c160201b6200106d1760201c565b5050505062000c5d565b620005bb848484846040516024016200053294939291906200098f565b6040516020818303038152906040527f8d142cdd000000000000000000000000000000000000000000000000000000007bffffffffffffffffffffffffffffffffffffffffffffffffffffffff19166020820180517bffffffffffffffffffffffffffffffffffffffffffffffffffffffff8381831617835250505050620005d760201b60201c565b50505050565b6001816000016000828254019250508190555050565b60008151905060006a636f6e736f6c652e6c6f679050602083016000808483855afa5050505050565b8280546200060e9062000b6f565b90600052602060002090601f0160209004810192826200063257600085556200067e565b82601f106200064d57805160ff19168380011785556200067e565b828001600101855582156200067e579182015b828111156200067d57825182559160200191906001019062000660565b5b5090506200068d919062000691565b5090565b5b80821115620006ac57600081600090555060010162000692565b5090565b6000620006c7620006c18462000a25565b620009f1565b9050808382526020820190508260005b858110156200070b5781518501620006f0888262000829565b845260208401935060208301925050600181019050620006d7565b5050509392505050565b60006200072c620007268462000a54565b620009f1565b905080838252602082019050828560208602820111156200074c57600080fd5b60005b8581101562000780578162000765888262000856565b8452602084019350602083019250506001810190506200074f565b5050509392505050565b6000620007a16200079b8462000a83565b620009f1565b905082815260208101848484011115620007ba57600080fd5b620007c784828562000b39565b509392505050565b600082601f830112620007e157600080fd5b8151620007f3848260208601620006b0565b91505092915050565b600082601f8301126200080e57600080fd5b81516200082084826020860162000715565b91505092915050565b600082601f8301126200083b57600080fd5b81516200084d8482602086016200078a565b91505092915050565b600081519050620008678162000c43565b92915050565b600080600080608085870312156200088457600080fd5b600085015167ffffffffffffffff8111156200089f57600080fd5b620008ad87828801620007cf565b945050602085015167ffffffffffffffff811115620008cb57600080fd5b620008d987828801620007cf565b935050604085015167ffffffffffffffff811115620008f757600080fd5b6200090587828801620007fc565b925050606085015167ffffffffffffffff8111156200092357600080fd5b6200093187828801620007fc565b91505092959194509250565b60006200094a8262000ab6565b62000956818562000ac1565b93506200096881856020860162000b39565b620009738162000c32565b840191505092915050565b620009898162000b2f565b82525050565b60006080820190508181036000830152620009ab81876200093d565b90508181036020830152620009c181866200093d565b9050620009d260408301856200097e565b8181036060830152620009e681846200093d565b905095945050505050565b6000604051905081810181811067ffffffffffffffff8211171562000a1b5762000a1a62000c03565b5b8060405250919050565b600067ffffffffffffffff82111562000a435762000a4262000c03565b5b602082029050602081019050919050565b600067ffffffffffffffff82111562000a725762000a7162000c03565b5b602082029050602081019050919050565b600067ffffffffffffffff82111562000aa15762000aa062000c03565b5b601f19601f8301169050602081019050919050565b600081519050919050565b600082825260208201905092915050565b600062000adf8262000b2f565b915062000aec8362000b2f565b9250827fffffffffffffffffffffffffffffffffffffffffffffffffffffffffffffffff0382111562000b245762000b2362000ba5565b5b828201905092915050565b6000819050919050565b60005b8381101562000b5957808201518184015260208101905062000b3c565b8381111562000b69576000848401525b50505050565b6000600282049050600182168062000b8857607f821691505b6020821081141562000b9f5762000b9e62000bd4565b5b50919050565b7f4e487b7100000000000000000000000000000000000000000000000000000000600052601160045260246000fd5b7f4e487b7100000000000000000000000000000000000000000000000000000000600052602260045260246000fd5b7f4e487b7100000000000000000000000000000000000000000000000000000000600052604160045260246000fd5b6000601f19601f8301169050919050565b62000c4e8162000b2f565b811462000c5a57600080fd5b50565b612f2d8062000c6d6000396000f3fe608060405234801561001057600080fd5b50600436106101005760003560e01c80637df124a111610097578063b88d4fde11610066578063b88d4fde146102d6578063c87b56dd146102f2578063e985e9c514610322578063f8b81ef71461035257610100565b80637df124a11461023757806395d89b411461026757806398da4c9514610285578063a22cb465146102ba57610100565b806323b872dd116100d357806323b872dd1461019f57806342842e0e146101bb5780636352211e146101d757806370a082311461020757610100565b806301ffc9a71461010557806306fdde0314610135578063081812fc14610153578063095ea7b314610183575b600080fd5b61011f600480360381019061011a91906120c8565b61036e565b60405161012c91906127c0565b60405180910390f35b61013d610450565b60405161014a91906127db565b60405180910390f35b61016d6004803603810190610168919061211a565b6104e2565b60405161017a9190612759565b60405180910390f35b61019d6004803603810190610198919061208c565b610567565b005b6101b960048036038101906101b49190611f86565b61067f565b005b6101d560048036038101906101d09190611f86565b6106df565b005b6101f160048036038101906101ec919061211a565b6106ff565b6040516101fe9190612759565b60405180910390f35b610221600480360381019061021c9190611f21565b6107b1565b60405161022e9190612a55565b60405180910390f35b610251600480360381019061024c9190611f21565b610869565b60405161025e9190612a55565b60405180910390f35b61026f610881565b60405161027c91906127db565b60405180910390f35b61029f600480360381019061029a919061211a565b610913565b6040516102b196959493929190612a70565b60405180910390f35b6102d460048036038101906102cf9190612050565b610a5f565b005b6102f060048036038101906102eb9190611fd5565b610a75565b005b61030c6004803603810190610307919061211a565b610ad7565b60405161031991906127db565b60405180910390f35b61033c60048036038101906103379190611f4a565b610b7e565b60405161034991906127c0565b60405180910390f35b61036c6004803603810190610367919061211a565b610c12565b005b60007f80ac58cd000000000000000000000000000000000000000000000000000000007bffffffffffffffffffffffffffffffffffffffffffffffffffffffff1916827bffffffffffffffffffffffffffffffffffffffffffffffffffffffff1916148061043957507f5b5e139f000000000000000000000000000000000000000000000000000000007bffffffffffffffffffffffffffffffffffffffffffffffffffffffff1916827bffffffffffffffffffffffffffffffffffffffffffffffffffffffff1916145b80610449575061044882611083565b5b9050919050565b60606000805461045f90612cf4565b80601f016020809104026020016040519081016040528092919081815260200182805461048b90612cf4565b80156104d85780601f106104ad576101008083540402835291602001916104d8565b820191906000526020600020905b8154815290600101906020018083116104bb57829003601f168201915b5050505050905090565b60006104ed826110ed565b61052c576040517f08c379a0000000000000000000000000000000000000000000000000000000008152600401610523906129b5565b60405180910390fd5b6004600083815260200190815260200160002060009054906101000a900473ffffffffffffffffffffffffffffffffffffffff169050919050565b6000610572826106ff565b90508073ffffffffffffffffffffffffffffffffffffffff168373ffffffffffffffffffffffffffffffffffffffff1614156105e3576040517f08c379a00000000000000000000000000000000000000000000000000000000081526004016105da90612a15565b60405180910390fd5b8073ffffffffffffffffffffffffffffffffffffffff16610602611159565b73ffffffffffffffffffffffffffffffffffffffff16148061063157506106308161062b611159565b610b7e565b5b610670576040517f08c379a000000000000000000000000000000000000000000000000000000000815260040161066790612935565b60405180910390fd5b61067a8383611161565b505050565b61069061068a611159565b8261121a565b6106cf576040517f08c379a00000000000000000000000000000000000000000000000000000000081526004016106c690612a35565b60405180910390fd5b6106da8383836112f8565b505050565b6106fa83838360405180602001604052806000815250610a75565b505050565b6000806002600084815260200190815260200160002060009054906101000a900473ffffffffffffffffffffffffffffffffffffffff169050600073ffffffffffffffffffffffffffffffffffffffff168173ffffffffffffffffffffffffffffffffffffffff1614156107a8576040517f08c379a000000000000000000000000000000000000000000000000000000000815260040161079f90612975565b60405180910390fd5b80915050919050565b60008073ffffffffffffffffffffffffffffffffffffffff168273ffffffffffffffffffffffffffffffffffffffff161415610822576040517f08c379a000000000000000000000000000000000000000000000000000000000815260040161081990612955565b60405180910390fd5b600360008373ffffffffffffffffffffffffffffffffffffffff1673ffffffffffffffffffffffffffffffffffffffff168152602001908152602001600020549050919050565b60096020528060005260406000206000915090505481565b60606001805461089090612cf4565b80601f01602080910402602001604051908101604052809291908181526020018280546108bc90612cf4565b80156109095780601f106108de57610100808354040283529160200191610909565b820191906000526020600020905b8154815290600101906020018083116108ec57829003601f168201915b5050505050905090565b600860205280600052604060002060009150905080600001549080600101805461093c90612cf4565b80601f016020809104026020016040519081016040528092919081815260200182805461096890612cf4565b80156109b55780601f1061098a576101008083540402835291602001916109b5565b820191906000526020600020905b81548152906001019060200180831161099857829003601f168201915b5050505050908060020180546109ca90612cf4565b80601f01602080910402602001604051908101604052809291908181526020018280546109f690612cf4565b8015610a435780601f10610a1857610100808354040283529160200191610a43565b820191906000526020600020905b815481529060010190602001808311610a2657829003601f168201915b5050505050908060030154908060040154908060050154905086565b610a71610a6a611159565b8383611554565b5050565b610a86610a80611159565b8361121a565b610ac5576040517f08c379a0000000000000000000000000000000000000000000000000000000008152600401610abc90612a35565b60405180910390fd5b610ad1848484846116c1565b50505050565b6060610ae2826110ed565b610b21576040517f08c379a0000000000000000000000000000000000000000000000000000000008152600401610b18906129f5565b60405180910390fd5b6000610b2b61171d565b90506000815111610b4b5760405180602001604052806000815250610b76565b80610b5584611734565b604051602001610b66929190612735565b6040516020818303038152906040525b915050919050565b6000600560008473ffffffffffffffffffffffffffffffffffffffff1673ffffffffffffffffffffffffffffffffffffffff16815260200190815260200160002060008373ffffffffffffffffffffffffffffffffffffffff1673ffffffffffffffffffffffffffffffffffffffff16815260200190815260200160002060009054906101000a900460ff16905092915050565b6000610c1e60066118e1565b9050610c2a33826118ef565b6040518060c0016040528083815260200160078481548110610c75577f4e487b7100000000000000000000000000000000000000000000000000000000600052603260045260246000fd5b90600052602060002090600602016001018054610c9190612cf4565b80601f0160208091040260200160405190810160405280929190818152602001828054610cbd90612cf4565b8015610d0a5780601f10610cdf57610100808354040283529160200191610d0a565b820191906000526020600020905b815481529060010190602001808311610ced57829003601f168201915b5050505050815260200160078481548110610d4e577f4e487b7100000000000000000000000000000000000000000000000000000000600052603260045260246000fd5b90600052602060002090600602016002018054610d6a90612cf4565b80601f0160208091040260200160405190810160405280929190818152602001828054610d9690612cf4565b8015610de35780601f10610db857610100808354040283529160200191610de3565b820191906000526020600020905b815481529060010190602001808311610dc657829003601f168201915b5050505050815260200160078481548110610e27577f4e487b7100000000000000000000000000000000000000000000000000000000600052603260045260246000fd5b906000526020600020906006020160030154815260200160078481548110610e78577f4e487b7100000000000000000000000000000000000000000000000000000000600052603260045260246000fd5b906000526020600020906006020160040154815260200160078481548110610ec9577f4e487b7100000000000000000000000000000000000000000000000000000000600052603260045260246000fd5b90600052602060002090600602016005015481525060086000838152602001908152602001600020600082015181600001556020820151816001019080519060200190610f17929190611dad565b506040820151816002019080519060200190610f34929190611dad565b50606082015181600301556080820151816004015560a08201518160050155905050610f796040518060600160405280602e8152602001612eca602e9139828461190d565b80600960003373ffffffffffffffffffffffffffffffffffffffff1673ffffffffffffffffffffffffffffffffffffffff16815260200190815260200160002081905550610fc7600661106d565b5050565b61106784848484604051602401610fe594939291906127fd565b6040516020818303038152906040527f8d142cdd000000000000000000000000000000000000000000000000000000007bffffffffffffffffffffffffffffffffffffffffffffffffffffffff19166020820180517bffffffffffffffffffffffffffffffffffffffffffffffffffffffff83818316178352505050506119ac565b50505050565b6001816000016000828254019250508190555050565b60007f01ffc9a7000000000000000000000000000000000000000000000000000000007bffffffffffffffffffffffffffffffffffffffffffffffffffffffff1916827bffffffffffffffffffffffffffffffffffffffffffffffffffffffff1916149050919050565b60008073ffffffffffffffffffffffffffffffffffffffff166002600084815260200190815260200160002060009054906101000a900473ffffffffffffffffffffffffffffffffffffffff1673ffffffffffffffffffffffffffffffffffffffff1614159050919050565b600033905090565b816004600083815260200190815260200160002060006101000a81548173ffffffffffffffffffffffffffffffffffffffff021916908373ffffffffffffffffffffffffffffffffffffffff160217905550808273ffffffffffffffffffffffffffffffffffffffff166111d4836106ff565b73ffffffffffffffffffffffffffffffffffffffff167f8c5be1e5ebec7d5bd14f71427d1e84f3dd0314c0f7b2291e5b200ac8c7c3b92560405160405180910390a45050565b6000611225826110ed565b611264576040517f08c379a000000000000000000000000000000000000000000000000000000000815260040161125b90612915565b60405180910390fd5b600061126f836106ff565b90508073ffffffffffffffffffffffffffffffffffffffff168473ffffffffffffffffffffffffffffffffffffffff1614806112de57508373ffffffffffffffffffffffffffffffffffffffff166112c6846104e2565b73ffffffffffffffffffffffffffffffffffffffff16145b806112ef57506112ee8185610b7e565b5b91505092915050565b8273ffffffffffffffffffffffffffffffffffffffff16611318826106ff565b73ffffffffffffffffffffffffffffffffffffffff161461136e576040517f08c379a0000000000000000000000000000000000000000000000000000000008152600401611365906129d5565b60405180910390fd5b600073ffffffffffffffffffffffffffffffffffffffff168273ffffffffffffffffffffffffffffffffffffffff1614156113de576040517f08c379a00000000000000000000000000000000000000000000000000000000081526004016113d5906128d5565b60405180910390fd5b6113e98383836119d5565b6113f4600082611161565b6001600360008573ffffffffffffffffffffffffffffffffffffffff1673ffffffffffffffffffffffffffffffffffffffff16815260200190815260200160002060008282546114449190612c0a565b925050819055506001600360008473ffffffffffffffffffffffffffffffffffffffff1673ffffffffffffffffffffffffffffffffffffffff168152602001908152602001600020600082825461149b9190612b83565b92505081905550816002600083815260200190815260200160002060006101000a81548173ffffffffffffffffffffffffffffffffffffffff021916908373ffffffffffffffffffffffffffffffffffffffff160217905550808273ffffffffffffffffffffffffffffffffffffffff168473ffffffffffffffffffffffffffffffffffffffff167fddf252ad1be2c89b69c2b068fc378daa952ba7f163c4a11628f55a4df523b3ef60405160405180910390a4505050565b8173ffffffffffffffffffffffffffffffffffffffff168373ffffffffffffffffffffffffffffffffffffffff1614156115c3576040517f08c379a00000000000000000000000000000000000000000000000000000000081526004016115ba906128f5565b60405180910390fd5b80600560008573ffffffffffffffffffffffffffffffffffffffff1673ffffffffffffffffffffffffffffffffffffffff16815260200190815260200160002060008473ffffffffffffffffffffffffffffffffffffffff1673ffffffffffffffffffffffffffffffffffffffff16815260200190815260200160002060006101000a81548160ff0219169083151502179055508173ffffffffffffffffffffffffffffffffffffffff168373ffffffffffffffffffffffffffffffffffffffff167f17307eab39ab6107e8899845ad3d59bd9653f200f220920489ca2b5937696c31836040516116b491906127c0565b60405180910390a3505050565b6116cc8484846112f8565b6116d8848484846119da565b611717576040517f08c379a000000000000000000000000000000000000000000000000000000000815260040161170e90612895565b60405180910390fd5b50505050565b606060405180602001604052806000815250905090565b6060600082141561177c576040518060400160405280600181526020017f300000000000000000000000000000000000000000000000000000000000000081525090506118dc565b600082905060005b600082146117ae57808061179790612d26565b915050600a826117a79190612bd9565b9150611784565b60008167ffffffffffffffff8111156117f0577f4e487b7100000000000000000000000000000000000000000000000000000000600052604160045260246000fd5b6040519080825280601f01601f1916602001820160405280156118225781602001600182028036833780820191505090505b5090505b600085146118d55760018261183b9190612c0a565b9150600a8561184a9190612d6f565b60306118569190612b83565b60f81b818381518110611892577f4e487b7100000000000000000000000000000000000000000000000000000000600052603260045260246000fd5b60200101907effffffffffffffffffffffffffffffffffffffffffffffffffffffffffffff1916908160001a905350600a856118ce9190612bd9565b9450611826565b8093505050505b919050565b600081600001549050919050565b611909828260405180602001604052806000815250611b71565b5050565b6119a783838360405160240161192593929190612857565b6040516020818303038152906040527f969cdd03000000000000000000000000000000000000000000000000000000007bffffffffffffffffffffffffffffffffffffffffffffffffffffffff19166020820180517bffffffffffffffffffffffffffffffffffffffffffffffffffffffff83818316178352505050506119ac565b505050565b60008151905060006a636f6e736f6c652e6c6f679050602083016000808483855afa5050505050565b505050565b60006119fb8473ffffffffffffffffffffffffffffffffffffffff16611bcc565b15611b64578373ffffffffffffffffffffffffffffffffffffffff1663150b7a02611a24611159565b8786866040518563ffffffff1660e01b8152600401611a469493929190612774565b602060405180830381600087803b158015611a6057600080fd5b505af1925050508015611a9157506040513d601f19601f82011682018060405250810190611a8e91906120f1565b60015b611b14573d8060008114611ac1576040519150601f19603f3d011682016040523d82523d6000602084013e611ac6565b606091505b50600081511415611b0c576040517f08c379a0000000000000000000000000000000000000000000000000000000008152600401611b0390612895565b60405180910390fd5b805181602001fd5b63150b7a0260e01b7bffffffffffffffffffffffffffffffffffffffffffffffffffffffff1916817bffffffffffffffffffffffffffffffffffffffffffffffffffffffff191614915050611b69565b600190505b949350505050565b611b7b8383611bdf565b611b8860008484846119da565b611bc7576040517f08c379a0000000000000000000000000000000000000000000000000000000008152600401611bbe90612895565b60405180910390fd5b505050565b600080823b905060008111915050919050565b600073ffffffffffffffffffffffffffffffffffffffff168273ffffffffffffffffffffffffffffffffffffffff161415611c4f576040517f08c379a0000000000000000000000000000000000000000000000000000000008152600401611c4690612995565b60405180910390fd5b611c58816110ed565b15611c98576040517f08c379a0000000000000000000000000000000000000000000000000000000008152600401611c8f906128b5565b60405180910390fd5b611ca4600083836119d5565b6001600360008473ffffffffffffffffffffffffffffffffffffffff1673ffffffffffffffffffffffffffffffffffffffff1681526020019081526020016000206000828254611cf49190612b83565b92505081905550816002600083815260200190815260200160002060006101000a81548173ffffffffffffffffffffffffffffffffffffffff021916908373ffffffffffffffffffffffffffffffffffffffff160217905550808273ffffffffffffffffffffffffffffffffffffffff16600073ffffffffffffffffffffffffffffffffffffffff167fddf252ad1be2c89b69c2b068fc378daa952ba7f163c4a11628f55a4df523b3ef60405160405180910390a45050565b828054611db990612cf4565b90600052602060002090601f016020900481019282611ddb5760008555611e22565b82601f10611df457805160ff1916838001178555611e22565b82800160010185558215611e22579182015b82811115611e21578251825591602001919060010190611e06565b5b509050611e2f9190611e33565b5090565b5b80821115611e4c576000816000905550600101611e34565b5090565b6000611e63611e5e84612b10565b612adf565b905082815260208101848484011115611e7b57600080fd5b611e86848285612cb2565b509392505050565b600081359050611e9d81612e6d565b92915050565b600081359050611eb281612e84565b92915050565b600081359050611ec781612e9b565b92915050565b600081519050611edc81612e9b565b92915050565b600082601f830112611ef357600080fd5b8135611f03848260208601611e50565b91505092915050565b600081359050611f1b81612eb2565b92915050565b600060208284031215611f3357600080fd5b6000611f4184828501611e8e565b91505092915050565b60008060408385031215611f5d57600080fd5b6000611f6b85828601611e8e565b9250506020611f7c85828601611e8e565b9150509250929050565b600080600060608486031215611f9b57600080fd5b6000611fa986828701611e8e565b9350506020611fba86828701611e8e565b9250506040611fcb86828701611f0c565b9150509250925092565b60008060008060808587031215611feb57600080fd5b6000611ff987828801611e8e565b945050602061200a87828801611e8e565b935050604061201b87828801611f0c565b925050606085013567ffffffffffffffff81111561203857600080fd5b61204487828801611ee2565b91505092959194509250565b6000806040838503121561206357600080fd5b600061207185828601611e8e565b925050602061208285828601611ea3565b9150509250929050565b6000806040838503121561209f57600080fd5b60006120ad85828601611e8e565b92505060206120be85828601611f0c565b9150509250929050565b6000602082840312156120da57600080fd5b60006120e884828501611eb8565b91505092915050565b60006020828403121561210357600080fd5b600061211184828501611ecd565b91505092915050565b60006020828403121561212c57600080fd5b600061213a84828501611f0c565b91505092915050565b61214c81612c3e565b82525050565b61215b81612c50565b82525050565b600061216c82612b40565b6121768185612b56565b9350612186818560208601612cc1565b61218f81612e5c565b840191505092915050565b60006121a582612b4b565b6121af8185612b67565b93506121bf818560208601612cc1565b6121c881612e5c565b840191505092915050565b60006121de82612b4b565b6121e88185612b78565b93506121f8818560208601612cc1565b80840191505092915050565b6000612211603283612b67565b91507f4552433732313a207472616e7366657220746f206e6f6e20455243373231526560008301527f63656976657220696d706c656d656e74657200000000000000000000000000006020830152604082019050919050565b6000612277601c83612b67565b91507f4552433732313a20746f6b656e20616c7265616479206d696e746564000000006000830152602082019050919050565b60006122b7602483612b67565b91507f4552433732313a207472616e7366657220746f20746865207a65726f2061646460008301527f72657373000000000000000000000000000000000000000000000000000000006020830152604082019050919050565b600061231d601983612b67565b91507f4552433732313a20617070726f766520746f2063616c6c6572000000000000006000830152602082019050919050565b600061235d602c83612b67565b91507f4552433732313a206f70657261746f7220717565727920666f72206e6f6e657860008301527f697374656e7420746f6b656e00000000000000000000000000000000000000006020830152604082019050919050565b60006123c3603883612b67565b91507f4552433732313a20617070726f76652063616c6c6572206973206e6f74206f7760008301527f6e6572206e6f7220617070726f76656420666f7220616c6c00000000000000006020830152604082019050919050565b6000612429602a83612b67565b91507f4552433732313a2062616c616e636520717565727920666f7220746865207a6560008301527f726f2061646472657373000000000000000000000000000000000000000000006020830152604082019050919050565b600061248f602983612b67565b91507f4552433732313a206f776e657220717565727920666f72206e6f6e657869737460008301527f656e7420746f6b656e00000000000000000000000000000000000000000000006020830152604082019050919050565b60006124f5602083612b67565b91507f4552433732313a206d696e7420746f20746865207a65726f20616464726573736000830152602082019050919050565b6000612535602c83612b67565b91507f4552433732313a20617070726f76656420717565727920666f72206e6f6e657860008301527f697374656e7420746f6b656e00000000000000000000000000000000000000006020830152604082019050919050565b600061259b602983612b67565b91507f4552433732313a207472616e73666572206f6620746f6b656e2074686174206960008301527f73206e6f74206f776e00000000000000000000000000000000000000000000006020830152604082019050919050565b6000612601602f83612b67565b91507f4552433732314d657461646174613a2055524920717565727920666f72206e6f60008301527f6e6578697374656e7420746f6b656e00000000000000000000000000000000006020830152604082019050919050565b6000612667602183612b67565b91507f4552433732313a20617070726f76616c20746f2063757272656e74206f776e6560008301527f72000000000000000000000000000000000000000000000000000000000000006020830152604082019050919050565b60006126cd603183612b67565b91507f4552433732313a207472616e736665722063616c6c6572206973206e6f74206f60008301527f776e6572206e6f7220617070726f7665640000000000000000000000000000006020830152604082019050919050565b61272f81612ca8565b82525050565b600061274182856121d3565b915061274d82846121d3565b91508190509392505050565b600060208201905061276e6000830184612143565b92915050565b60006080820190506127896000830187612143565b6127966020830186612143565b6127a36040830185612726565b81810360608301526127b58184612161565b905095945050505050565b60006020820190506127d56000830184612152565b92915050565b600060208201905081810360008301526127f5818461219a565b905092915050565b60006080820190508181036000830152612817818761219a565b9050818103602083015261282b818661219a565b905061283a6040830185612726565b818103606083015261284c818461219a565b905095945050505050565b60006060820190508181036000830152612871818661219a565b90506128806020830185612726565b61288d6040830184612726565b949350505050565b600060208201905081810360008301526128ae81612204565b9050919050565b600060208201905081810360008301526128ce8161226a565b9050919050565b600060208201905081810360008301526128ee816122aa565b9050919050565b6000602082019050818103600083015261290e81612310565b9050919050565b6000602082019050818103600083015261292e81612350565b9050919050565b6000602082019050818103600083015261294e816123b6565b9050919050565b6000602082019050818103600083015261296e8161241c565b9050919050565b6000602082019050818103600083015261298e81612482565b9050919050565b600060208201905081810360008301526129ae816124e8565b9050919050565b600060208201905081810360008301526129ce81612528565b9050919050565b600060208201905081810360008301526129ee8161258e565b9050919050565b60006020820190508181036000830152612a0e816125f4565b9050919050565b60006020820190508181036000830152612a2e8161265a565b9050919050565b60006020820190508181036000830152612a4e816126c0565b9050919050565b6000602082019050612a6a6000830184612726565b92915050565b600060c082019050612a856000830189612726565b8181036020830152612a97818861219a565b90508181036040830152612aab818761219a565b9050612aba6060830186612726565b612ac76080830185612726565b612ad460a0830184612726565b979650505050505050565b6000604051905081810181811067ffffffffffffffff82111715612b0657612b05612e2d565b5b8060405250919050565b600067ffffffffffffffff821115612b2b57612b2a612e2d565b5b601f19601f8301169050602081019050919050565b600081519050919050565b600081519050919050565b600082825260208201905092915050565b600082825260208201905092915050565b600081905092915050565b6000612b8e82612ca8565b9150612b9983612ca8565b9250827fffffffffffffffffffffffffffffffffffffffffffffffffffffffffffffffff03821115612bce57612bcd612da0565b5b828201905092915050565b6000612be482612ca8565b9150612bef83612ca8565b925082612bff57612bfe612dcf565b5b828204905092915050565b6000612c1582612ca8565b9150612c2083612ca8565b925082821015612c3357612c32612da0565b5b828203905092915050565b6000612c4982612c88565b9050919050565b60008115159050919050565b60007fffffffff0000000000000000000000000000000000000000000000000000000082169050919050565b600073ffffffffffffffffffffffffffffffffffffffff82169050919050565b6000819050919050565b82818337600083830152505050565b60005b83811015612cdf578082015181840152602081019050612cc4565b83811115612cee576000848401525b50505050565b60006002820490506001821680612d0c57607f821691505b60208210811415612d2057612d1f612dfe565b5b50919050565b6000612d3182612ca8565b91507fffffffffffffffffffffffffffffffffffffffffffffffffffffffffffffffff821415612d6457612d63612da0565b5b600182019050919050565b6000612d7a82612ca8565b9150612d8583612ca8565b925082612d9557612d94612dcf565b5b828206905092915050565b7f4e487b7100000000000000000000000000000000000000000000000000000000600052601160045260246000fd5b7f4e487b7100000000000000000000000000000000000000000000000000000000600052601260045260246000fd5b7f4e487b7100000000000000000000000000000000000000000000000000000000600052602260045260246000fd5b7f4e487b7100000000000000000000000000000000000000000000000000000000600052604160045260246000fd5b6000601f19601f8301169050919050565b612e7681612c3e565b8114612e8157600080fd5b50565b612e8d81612c50565b8114612e9857600080fd5b50565b612ea481612c5c565b8114612eaf57600080fd5b50565b612ebb81612ca8565b8114612ec657600080fd5b5056fe4d696e746564204e465420772f20746f6b656e496420257320616e6420636861726163746572496e646578202573a2646970667358221220c78d935cb717b4e969b947ee59d01833b27ced4f85060607a9593503db1551e864736f6c63430008000033446f6e6520696e697469616c697a696e6720257320772f2048502025732c20696d67202573",
  "linkReferences": {},
  "deployedLinkReferences": {}
}