{
  "_format": "hh-sol-artifact-1",
  "contractName": "MyEpicGame",
  "sourceName": "contracts/MyEpicGame.sol",
  "abi": [
    {
      "inputs": [
        {
          "internalType": "string[]",
          "name": "characterNames",
          "type": "string[]"
        },
        {
          "internalType": "string[]",
          "name": "characterImageURIs",
          "type": "string[]"
        },
        {
          "internalType": "uint256[]",
          "name": "characterHp",
          "type": "uint256[]"
        },
        {
          "internalType": "uint256[]",
          "name": "characterAttackDmg",
          "type": "uint256[]"
        }
      ],
      "stateMutability": "nonpayable",
      "type": "constructor"
    },
    {
      "anonymous": false,
      "inputs": [
        {
          "indexed": true,
          "internalType": "address",
          "name": "owner",
          "type": "address"
        },
        {
          "indexed": true,
          "internalType": "address",
          "name": "approved",
          "type": "address"
        },
        {
          "indexed": true,
          "internalType": "uint256",
          "name": "tokenId",
          "type": "uint256"
        }
      ],
      "name": "Approval",
      "type": "event"
    },
    {
      "anonymous": false,
      "inputs": [
        {
          "indexed": true,
          "internalType": "address",
          "name": "owner",
          "type": "address"
        },
        {
          "indexed": true,
          "internalType": "address",
          "name": "operator",
          "type": "address"
        },
        {
          "indexed": false,
          "internalType": "bool",
          "name": "approved",
          "type": "bool"
        }
      ],
      "name": "ApprovalForAll",
      "type": "event"
    },
    {
      "anonymous": false,
      "inputs": [
        {
          "indexed": true,
          "internalType": "address",
          "name": "from",
          "type": "address"
        },
        {
          "indexed": true,
          "internalType": "address",
          "name": "to",
          "type": "address"
        },
        {
          "indexed": true,
          "internalType": "uint256",
          "name": "tokenId",
          "type": "uint256"
        }
      ],
      "name": "Transfer",
      "type": "event"
    },
    {
      "inputs": [
        {
          "internalType": "address",
          "name": "to",
          "type": "address"
        },
        {
          "internalType": "uint256",
          "name": "tokenId",
          "type": "uint256"
        }
      ],
      "name": "approve",
      "outputs": [],
      "stateMutability": "nonpayable",
      "type": "function"
    },
    {
      "inputs": [
        {
          "internalType": "address",
          "name": "owner",
          "type": "address"
        }
      ],
      "name": "balanceOf",
      "outputs": [
        {
          "internalType": "uint256",
          "name": "",
          "type": "uint256"
        }
      ],
      "stateMutability": "view",
      "type": "function"
    },
    {
      "inputs": [
        {
          "internalType": "uint256",
          "name": "tokenId",
          "type": "uint256"
        }
      ],
      "name": "getApproved",
      "outputs": [
        {
          "internalType": "address",
          "name": "",
          "type": "address"
        }
      ],
      "stateMutability": "view",
      "type": "function"
    },
    {
      "inputs": [
        {
          "internalType": "address",
          "name": "owner",
          "type": "address"
        },
        {
          "internalType": "address",
          "name": "operator",
          "type": "address"
        }
      ],
      "name": "isApprovedForAll",
      "outputs": [
        {
          "internalType": "bool",
          "name": "",
          "type": "bool"
        }
      ],
      "stateMutability": "view",
      "type": "function"
    },
    {
      "inputs": [
        {
          "internalType": "uint256",
          "name": "_characterIndex",
          "type": "uint256"
        }
      ],
      "name": "mintCharacterNFT",
      "outputs": [],
      "stateMutability": "nonpayable",
      "type": "function"
    },
    {
      "inputs": [],
      "name": "name",
      "outputs": [
        {
          "internalType": "string",
          "name": "",
          "type": "string"
        }
      ],
      "stateMutability": "view",
      "type": "function"
    },
    {
      "inputs": [
        {
          "internalType": "uint256",
          "name": "",
          "type": "uint256"
        }
      ],
      "name": "nftHolderAttributes",
      "outputs": [
        {
          "internalType": "uint256",
          "name": "characterIndex",
          "type": "uint256"
        },
        {
          "internalType": "string",
          "name": "name",
          "type": "string"
        },
        {
          "internalType": "string",
          "name": "imageURI",
          "type": "string"
        },
        {
          "internalType": "uint256",
          "name": "hp",
          "type": "uint256"
        },
        {
          "internalType": "uint256",
          "name": "maxHp",
          "type": "uint256"
        },
        {
          "internalType": "uint256",
          "name": "attackDamage",
          "type": "uint256"
        }
      ],
      "stateMutability": "view",
      "type": "function"
    },
    {
      "inputs": [
        {
          "internalType": "address",
          "name": "",
          "type": "address"
        }
      ],
      "name": "nftHolders",
      "outputs": [
        {
          "internalType": "uint256",
          "name": "",
          "type": "uint256"
        }
      ],
      "stateMutability": "view",
      "type": "function"
    },
    {
      "inputs": [
        {
          "internalType": "uint256",
          "name": "tokenId",
          "type": "uint256"
        }
      ],
      "name": "ownerOf",
      "outputs": [
        {
          "internalType": "address",
          "name": "",
          "type": "address"
        }
      ],
      "stateMutability": "view",
      "type": "function"
    },
    {
      "inputs": [
        {
          "internalType": "address",
          "name": "from",
          "type": "address"
        },
        {
          "internalType": "address",
          "name": "to",
          "type": "address"
        },
        {
          "internalType": "uint256",
          "name": "tokenId",
          "type": "uint256"
        }
      ],
      "name": "safeTransferFrom",
      "outputs": [],
      "stateMutability": "nonpayable",
      "type": "function"
    },
    {
      "inputs": [
        {
          "internalType": "address",
          "name": "from",
          "type": "address"
        },
        {
          "internalType": "address",
          "name": "to",
          "type": "address"
        },
        {
          "internalType": "uint256",
          "name": "tokenId",
          "type": "uint256"
        },
        {
          "internalType": "bytes",
          "name": "_data",
          "type": "bytes"
        }
      ],
      "name": "safeTransferFrom",
      "outputs": [],
      "stateMutability": "nonpayable",
      "type": "function"
    },
    {
      "inputs": [
        {
          "internalType": "address",
          "name": "operator",
          "type": "address"
        },
        {
          "internalType": "bool",
          "name": "approved",
          "type": "bool"
        }
      ],
      "name": "setApprovalForAll",
      "outputs": [],
      "stateMutability": "nonpayable",
      "type": "function"
    },
    {
      "inputs": [
        {
          "internalType": "bytes4",
          "name": "interfaceId",
          "type": "bytes4"
        }
      ],
      "name": "supportsInterface",
      "outputs": [
        {
          "internalType": "bool",
          "name": "",
          "type": "bool"
        }
      ],
      "stateMutability": "view",
      "type": "function"
    },
    {
      "inputs": [],
      "name": "symbol",
      "outputs": [
        {
          "internalType": "string",
          "name": "",
          "type": "string"
        }
      ],
      "stateMutability": "view",
      "type": "function"
    },
    {
      "inputs": [
        {
          "internalType": "uint256",
          "name": "_tokenId",
          "type": "uint256"
        }
      ],
      "name": "tokenURI",
      "outputs": [
        {
          "internalType": "string",
          "name": "",
          "type": "string"
        }
      ],
      "stateMutability": "view",
      "type": "function"
    },
    {
      "inputs": [
        {
          "internalType": "address",
          "name": "from",
          "type": "address"
        },
        {
          "internalType": "address",
          "name": "to",
          "type": "address"
        },
        {
          "internalType": "uint256",
          "name": "tokenId",
          "type": "uint256"
        }
      ],
      "name": "transferFrom",
      "outputs": [],
      "stateMutability": "nonpayable",
      "type": "function"
    }
  ],
  "bytecode": "0x60806040523480156200001157600080fd5b506040516200423c3803806200423c83398181016040528101906200003791906200086d565b6040518060400160405280600c81526020017f4e6f5f4d6f5f4865726f657300000000000000000000000000000000000000008152506040518060400160405280600381526020017f4e4d4800000000000000000000000000000000000000000000000000000000008152508160009080519060200190620000bb92919062000600565b508060019080519060200190620000d492919062000600565b50505060005b8451811015620004f35760076040518060c0016040528083815260200187848151811062000131577f4e487b7100000000000000000000000000000000000000000000000000000000600052603260045260246000fd5b6020026020010151815260200186848151811062000178577f4e487b7100000000000000000000000000000000000000000000000000000000600052603260045260246000fd5b60200260200101518152602001858481518110620001bf577f4e487b7100000000000000000000000000000000000000000000000000000000600052603260045260246000fd5b6020026020010151815260200185848151811062000206577f4e487b7100000000000000000000000000000000000000000000000000000000600052603260045260246000fd5b602002602001015181526020018484815181106200024d577f4e487b7100000000000000000000000000000000000000000000000000000000600052603260045260246000fd5b60200260200101518152509080600181540180825580915050600190039060005260206000209060060201600090919091909150600082015181600001556020820151816001019080519060200190620002a992919062000600565b506040820151816002019080519060200190620002c892919062000600565b50606082015181600301556080820151816004015560a08201518160050155505060006007828154811062000326577f4e487b7100000000000000000000000000000000000000000000000000000000600052603260045260246000fd5b90600052602060002090600602016040518060c0016040529081600082015481526020016001820180546200035b9062000b6f565b80601f0160208091040260200160405190810160405280929190818152602001828054620003899062000b6f565b8015620003da5780601f10620003ae57610100808354040283529160200191620003da565b820191906000526020600020905b815481529060010190602001808311620003bc57829003601f168201915b50505050508152602001600282018054620003f59062000b6f565b80601f0160208091040260200160405190810160405280929190818152602001828054620004239062000b6f565b8015620004745780601f10620004485761010080835404028352916020019162000474565b820191906000526020600020905b8154815290600101906020018083116200045657829003601f168201915b5050505050815260200160038201548152602001600482015481526020016005820154815250509050620004db60405180606001604052806025815260200162004217602591398260200151836060015184604001516200051560201b6200113f1760201c565b50600181620004eb919062000ad2565b9050620000da565b506200050b6006620005c160201b620011e11760201c565b5050505062000c5d565b620005bb848484846040516024016200053294939291906200098f565b6040516020818303038152906040527f8d142cdd000000000000000000000000000000000000000000000000000000007bffffffffffffffffffffffffffffffffffffffffffffffffffffffff19166020820180517bffffffffffffffffffffffffffffffffffffffffffffffffffffffff8381831617835250505050620005d760201b60201c565b50505050565b6001816000016000828254019250508190555050565b60008151905060006a636f6e736f6c652e6c6f679050602083016000808483855afa5050505050565b8280546200060e9062000b6f565b90600052602060002090601f0160209004810192826200063257600085556200067e565b82601f106200064d57805160ff19168380011785556200067e565b828001600101855582156200067e579182015b828111156200067d57825182559160200191906001019062000660565b5b5090506200068d919062000691565b5090565b5b80821115620006ac57600081600090555060010162000692565b5090565b6000620006c7620006c18462000a25565b620009f1565b9050808382526020820190508260005b858110156200070b5781518501620006f0888262000829565b845260208401935060208301925050600181019050620006d7565b5050509392505050565b60006200072c620007268462000a54565b620009f1565b905080838252602082019050828560208602820111156200074c57600080fd5b60005b8581101562000780578162000765888262000856565b8452602084019350602083019250506001810190506200074f565b5050509392505050565b6000620007a16200079b8462000a83565b620009f1565b905082815260208101848484011115620007ba57600080fd5b620007c784828562000b39565b509392505050565b600082601f830112620007e157600080fd5b8151620007f3848260208601620006b0565b91505092915050565b600082601f8301126200080e57600080fd5b81516200082084826020860162000715565b91505092915050565b600082601f8301126200083b57600080fd5b81516200084d8482602086016200078a565b91505092915050565b600081519050620008678162000c43565b92915050565b600080600080608085870312156200088457600080fd5b600085015167ffffffffffffffff8111156200089f57600080fd5b620008ad87828801620007cf565b945050602085015167ffffffffffffffff811115620008cb57600080fd5b620008d987828801620007cf565b935050604085015167ffffffffffffffff811115620008f757600080fd5b6200090587828801620007fc565b925050606085015167ffffffffffffffff8111156200092357600080fd5b6200093187828801620007fc565b91505092959194509250565b60006200094a8262000ab6565b62000956818562000ac1565b93506200096881856020860162000b39565b620009738162000c32565b840191505092915050565b620009898162000b2f565b82525050565b60006080820190508181036000830152620009ab81876200093d565b90508181036020830152620009c181866200093d565b9050620009d260408301856200097e565b8181036060830152620009e681846200093d565b905095945050505050565b6000604051905081810181811067ffffffffffffffff8211171562000a1b5762000a1a62000c03565b5b8060405250919050565b600067ffffffffffffffff82111562000a435762000a4262000c03565b5b602082029050602081019050919050565b600067ffffffffffffffff82111562000a725762000a7162000c03565b5b602082029050602081019050919050565b600067ffffffffffffffff82111562000aa15762000aa062000c03565b5b601f19601f8301169050602081019050919050565b600081519050919050565b600082825260208201905092915050565b600062000adf8262000b2f565b915062000aec8362000b2f565b9250827fffffffffffffffffffffffffffffffffffffffffffffffffffffffffffffffff0382111562000b245762000b2362000ba5565b5b828201905092915050565b6000819050919050565b60005b8381101562000b5957808201518184015260208101905062000b3c565b8381111562000b69576000848401525b50505050565b6000600282049050600182168062000b8857607f821691505b6020821081141562000b9f5762000b9e62000bd4565b5b50919050565b7f4e487b7100000000000000000000000000000000000000000000000000000000600052601160045260246000fd5b7f4e487b7100000000000000000000000000000000000000000000000000000000600052602260045260246000fd5b7f4e487b7100000000000000000000000000000000000000000000000000000000600052604160045260246000fd5b6000601f19601f8301169050919050565b62000c4e8162000b2f565b811462000c5a57600080fd5b50565b6135aa8062000c6d6000396000f3fe608060405234801561001057600080fd5b50600436106101005760003560e01c80637df124a111610097578063b88d4fde11610066578063b88d4fde146102d6578063c87b56dd146102f2578063e985e9c514610322578063f8b81ef71461035257610100565b80637df124a11461023757806395d89b411461026757806398da4c9514610285578063a22cb465146102ba57610100565b806323b872dd116100d357806323b872dd1461019f57806342842e0e146101bb5780636352211e146101d757806370a082311461020757610100565b806301ffc9a71461010557806306fdde0314610135578063081812fc14610153578063095ea7b314610183575b600080fd5b61011f600480360381019061011a91906123d0565b61036e565b60405161012c9190612dc3565b60405180910390f35b61013d610450565b60405161014a9190612dde565b60405180910390f35b61016d60048036038101906101689190612422565b6104e2565b60405161017a9190612d5c565b60405180910390f35b61019d60048036038101906101989190612394565b610567565b005b6101b960048036038101906101b4919061228e565b61067f565b005b6101d560048036038101906101d0919061228e565b6106df565b005b6101f160048036038101906101ec9190612422565b6106ff565b6040516101fe9190612d5c565b60405180910390f35b610221600480360381019061021c9190612229565b6107b1565b60405161022e9190613038565b60405180910390f35b610251600480360381019061024c9190612229565b610869565b60405161025e9190613038565b60405180910390f35b61026f610881565b60405161027c9190612dde565b60405180910390f35b61029f600480360381019061029a9190612422565b610913565b6040516102b196959493929190613053565b60405180910390f35b6102d460048036038101906102cf9190612358565b610a5f565b005b6102f060048036038101906102eb91906122dd565b610a75565b005b61030c60048036038101906103079190612422565b610ad7565b6040516103199190612dde565b60405180910390f35b61033c60048036038101906103379190612252565b610cf2565b6040516103499190612dc3565b60405180910390f35b61036c60048036038101906103679190612422565b610d86565b005b60007f80ac58cd000000000000000000000000000000000000000000000000000000007bffffffffffffffffffffffffffffffffffffffffffffffffffffffff1916827bffffffffffffffffffffffffffffffffffffffffffffffffffffffff1916148061043957507f5b5e139f000000000000000000000000000000000000000000000000000000007bffffffffffffffffffffffffffffffffffffffffffffffffffffffff1916827bffffffffffffffffffffffffffffffffffffffffffffffffffffffff1916145b806104495750610448826111f7565b5b9050919050565b60606000805461045f90613331565b80601f016020809104026020016040519081016040528092919081815260200182805461048b90613331565b80156104d85780601f106104ad576101008083540402835291602001916104d8565b820191906000526020600020905b8154815290600101906020018083116104bb57829003601f168201915b5050505050905090565b60006104ed82611261565b61052c576040517f08c379a000000000000000000000000000000000000000000000000000000000815260040161052390612fb8565b60405180910390fd5b6004600083815260200190815260200160002060009054906101000a900473ffffffffffffffffffffffffffffffffffffffff169050919050565b6000610572826106ff565b90508073ffffffffffffffffffffffffffffffffffffffff168373ffffffffffffffffffffffffffffffffffffffff1614156105e3576040517f08c379a00000000000000000000000000000000000000000000000000000000081526004016105da90612ff8565b60405180910390fd5b8073ffffffffffffffffffffffffffffffffffffffff166106026112cd565b73ffffffffffffffffffffffffffffffffffffffff16148061063157506106308161062b6112cd565b610cf2565b5b610670576040517f08c379a000000000000000000000000000000000000000000000000000000000815260040161066790612f38565b60405180910390fd5b61067a83836112d5565b505050565b61069061068a6112cd565b8261138e565b6106cf576040517f08c379a00000000000000000000000000000000000000000000000000000000081526004016106c690613018565b60405180910390fd5b6106da83838361146c565b505050565b6106fa83838360405180602001604052806000815250610a75565b505050565b6000806002600084815260200190815260200160002060009054906101000a900473ffffffffffffffffffffffffffffffffffffffff169050600073ffffffffffffffffffffffffffffffffffffffff168173ffffffffffffffffffffffffffffffffffffffff1614156107a8576040517f08c379a000000000000000000000000000000000000000000000000000000000815260040161079f90612f78565b60405180910390fd5b80915050919050565b60008073ffffffffffffffffffffffffffffffffffffffff168273ffffffffffffffffffffffffffffffffffffffff161415610822576040517f08c379a000000000000000000000000000000000000000000000000000000000815260040161081990612f58565b60405180910390fd5b600360008373ffffffffffffffffffffffffffffffffffffffff1673ffffffffffffffffffffffffffffffffffffffff168152602001908152602001600020549050919050565b60096020528060005260406000206000915090505481565b60606001805461089090613331565b80601f01602080910402602001604051908101604052809291908181526020018280546108bc90613331565b80156109095780601f106108de57610100808354040283529160200191610909565b820191906000526020600020905b8154815290600101906020018083116108ec57829003601f168201915b5050505050905090565b600860205280600052604060002060009150905080600001549080600101805461093c90613331565b80601f016020809104026020016040519081016040528092919081815260200182805461096890613331565b80156109b55780601f1061098a576101008083540402835291602001916109b5565b820191906000526020600020905b81548152906001019060200180831161099857829003601f168201915b5050505050908060020180546109ca90613331565b80601f01602080910402602001604051908101604052809291908181526020018280546109f690613331565b8015610a435780601f10610a1857610100808354040283529160200191610a43565b820191906000526020600020905b815481529060010190602001808311610a2657829003601f168201915b5050505050908060030154908060040154908060050154905086565b610a71610a6a6112cd565b83836116c8565b5050565b610a86610a806112cd565b8361138e565b610ac5576040517f08c379a0000000000000000000000000000000000000000000000000000000008152600401610abc90613018565b60405180910390fd5b610ad184848484611835565b50505050565b60606000600860008481526020019081526020016000206040518060c001604052908160008201548152602001600182018054610b1390613331565b80601f0160208091040260200160405190810160405280929190818152602001828054610b3f90613331565b8015610b8c5780601f10610b6157610100808354040283529160200191610b8c565b820191906000526020600020905b815481529060010190602001808311610b6f57829003601f168201915b50505050508152602001600282018054610ba590613331565b80601f0160208091040260200160405190810160405280929190818152602001828054610bd190613331565b8015610c1e5780601f10610bf357610100808354040283529160200191610c1e565b820191906000526020600020905b815481529060010190602001808311610c0157829003601f168201915b50505050508152602001600382015481526020016004820154815260200160058201548152505090506000610c568260600151611891565b90506000610c678360800151611891565b90506000610c788460a00151611891565b90506000610cbe8560200151610c8d89611891565b8760400151878787604051602001610caa96959493929190612c95565b604051602081830303815290604052611a3e565b9050600081604051602001610cd39190612d3a565b6040516020818303038152906040529050809650505050505050919050565b6000600560008473ffffffffffffffffffffffffffffffffffffffff1673ffffffffffffffffffffffffffffffffffffffff16815260200190815260200160002060008373ffffffffffffffffffffffffffffffffffffffff1673ffffffffffffffffffffffffffffffffffffffff16815260200190815260200160002060009054906101000a900460ff16905092915050565b6000610d926006611be9565b9050610d9e3382611bf7565b6040518060c0016040528083815260200160078481548110610de9577f4e487b7100000000000000000000000000000000000000000000000000000000600052603260045260246000fd5b90600052602060002090600602016001018054610e0590613331565b80601f0160208091040260200160405190810160405280929190818152602001828054610e3190613331565b8015610e7e5780601f10610e5357610100808354040283529160200191610e7e565b820191906000526020600020905b815481529060010190602001808311610e6157829003601f168201915b5050505050815260200160078481548110610ec2577f4e487b7100000000000000000000000000000000000000000000000000000000600052603260045260246000fd5b90600052602060002090600602016002018054610ede90613331565b80601f0160208091040260200160405190810160405280929190818152602001828054610f0a90613331565b8015610f575780601f10610f2c57610100808354040283529160200191610f57565b820191906000526020600020905b815481529060010190602001808311610f3a57829003601f168201915b5050505050815260200160078481548110610f9b577f4e487b7100000000000000000000000000000000000000000000000000000000600052603260045260246000fd5b906000526020600020906006020160030154815260200160078481548110610fec577f4e487b7100000000000000000000000000000000000000000000000000000000600052603260045260246000fd5b90600052602060002090600602016004015481526020016007848154811061103d577f4e487b7100000000000000000000000000000000000000000000000000000000600052603260045260246000fd5b9060005260206000209060060201600501548152506008600083815260200190815260200160002060008201518160000155602082015181600101908051906020019061108b9291906120b5565b5060408201518160020190805190602001906110a89291906120b5565b50606082015181600301556080820151816004015560a082015181600501559050506110ed6040518060600160405280602e8152602001613547602e91398284611c15565b80600960003373ffffffffffffffffffffffffffffffffffffffff1673ffffffffffffffffffffffffffffffffffffffff1681526020019081526020016000208190555061113b60066111e1565b5050565b6111db848484846040516024016111599493929190612e00565b6040516020818303038152906040527f8d142cdd000000000000000000000000000000000000000000000000000000007bffffffffffffffffffffffffffffffffffffffffffffffffffffffff19166020820180517bffffffffffffffffffffffffffffffffffffffffffffffffffffffff8381831617835250505050611cb4565b50505050565b6001816000016000828254019250508190555050565b60007f01ffc9a7000000000000000000000000000000000000000000000000000000007bffffffffffffffffffffffffffffffffffffffffffffffffffffffff1916827bffffffffffffffffffffffffffffffffffffffffffffffffffffffff1916149050919050565b60008073ffffffffffffffffffffffffffffffffffffffff166002600084815260200190815260200160002060009054906101000a900473ffffffffffffffffffffffffffffffffffffffff1673ffffffffffffffffffffffffffffffffffffffff1614159050919050565b600033905090565b816004600083815260200190815260200160002060006101000a81548173ffffffffffffffffffffffffffffffffffffffff021916908373ffffffffffffffffffffffffffffffffffffffff160217905550808273ffffffffffffffffffffffffffffffffffffffff16611348836106ff565b73ffffffffffffffffffffffffffffffffffffffff167f8c5be1e5ebec7d5bd14f71427d1e84f3dd0314c0f7b2291e5b200ac8c7c3b92560405160405180910390a45050565b600061139982611261565b6113d8576040517f08c379a00000000000000000000000000000000000000000000000000000000081526004016113cf90612f18565b60405180910390fd5b60006113e3836106ff565b90508073ffffffffffffffffffffffffffffffffffffffff168473ffffffffffffffffffffffffffffffffffffffff16148061145257508373ffffffffffffffffffffffffffffffffffffffff1661143a846104e2565b73ffffffffffffffffffffffffffffffffffffffff16145b8061146357506114628185610cf2565b5b91505092915050565b8273ffffffffffffffffffffffffffffffffffffffff1661148c826106ff565b73ffffffffffffffffffffffffffffffffffffffff16146114e2576040517f08c379a00000000000000000000000000000000000000000000000000000000081526004016114d990612fd8565b60405180910390fd5b600073ffffffffffffffffffffffffffffffffffffffff168273ffffffffffffffffffffffffffffffffffffffff161415611552576040517f08c379a000000000000000000000000000000000000000000000000000000000815260040161154990612ed8565b60405180910390fd5b61155d838383611cdd565b6115686000826112d5565b6001600360008573ffffffffffffffffffffffffffffffffffffffff1673ffffffffffffffffffffffffffffffffffffffff16815260200190815260200160002060008282546115b89190613247565b925050819055506001600360008473ffffffffffffffffffffffffffffffffffffffff1673ffffffffffffffffffffffffffffffffffffffff168152602001908152602001600020600082825461160f9190613166565b92505081905550816002600083815260200190815260200160002060006101000a81548173ffffffffffffffffffffffffffffffffffffffff021916908373ffffffffffffffffffffffffffffffffffffffff160217905550808273ffffffffffffffffffffffffffffffffffffffff168473ffffffffffffffffffffffffffffffffffffffff167fddf252ad1be2c89b69c2b068fc378daa952ba7f163c4a11628f55a4df523b3ef60405160405180910390a4505050565b8173ffffffffffffffffffffffffffffffffffffffff168373ffffffffffffffffffffffffffffffffffffffff161415611737576040517f08c379a000000000000000000000000000000000000000000000000000000000815260040161172e90612ef8565b60405180910390fd5b80600560008573ffffffffffffffffffffffffffffffffffffffff1673ffffffffffffffffffffffffffffffffffffffff16815260200190815260200160002060008473ffffffffffffffffffffffffffffffffffffffff1673ffffffffffffffffffffffffffffffffffffffff16815260200190815260200160002060006101000a81548160ff0219169083151502179055508173ffffffffffffffffffffffffffffffffffffffff168373ffffffffffffffffffffffffffffffffffffffff167f17307eab39ab6107e8899845ad3d59bd9653f200f220920489ca2b5937696c31836040516118289190612dc3565b60405180910390a3505050565b61184084848461146c565b61184c84848484611ce2565b61188b576040517f08c379a000000000000000000000000000000000000000000000000000000000815260040161188290612e98565b60405180910390fd5b50505050565b606060008214156118d9576040518060400160405280600181526020017f30000000000000000000000000000000000000000000000000000000000000008152509050611a39565b600082905060005b6000821461190b5780806118f490613363565b915050600a8261190491906131bc565b91506118e1565b60008167ffffffffffffffff81111561194d577f4e487b7100000000000000000000000000000000000000000000000000000000600052604160045260246000fd5b6040519080825280601f01601f19166020018201604052801561197f5781602001600182028036833780820191505090505b5090505b60008514611a32576001826119989190613247565b9150600a856119a791906133ac565b60306119b39190613166565b60f81b8183815181106119ef577f4e487b7100000000000000000000000000000000000000000000000000000000600052603260045260246000fd5b60200101907effffffffffffffffffffffffffffffffffffffffffffffffffffffffffffff1916908160001a905350600a85611a2b91906131bc565b9450611983565b8093505050505b919050565b6060600082511415611a6157604051806020016040528060008152509050611be4565b60006040518060600160405280604081526020016135076040913990506000600360028551611a909190613166565b611a9a91906131bc565b6004611aa691906131ed565b90506000602082611ab79190613166565b67ffffffffffffffff811115611af6577f4e487b7100000000000000000000000000000000000000000000000000000000600052604160045260246000fd5b6040519080825280601f01601f191660200182016040528015611b285781602001600182028036833780820191505090505b509050818152600183018586518101602084015b81831015611ba3576003830192508251603f8160121c1685015160f81b8252600182019150603f81600c1c1685015160f81b8252600182019150603f8160061c1685015160f81b8252600182019150603f811685015160f81b825260018201915050611b3c565b600389510660018114611bbd5760028114611bcd57611bd8565b613d3d60f01b6002830352611bd8565b603d60f81b60018303525b50505050508093505050505b919050565b600081600001549050919050565b611c11828260405180602001604052806000815250611e79565b5050565b611caf838383604051602401611c2d93929190612e5a565b6040516020818303038152906040527f969cdd03000000000000000000000000000000000000000000000000000000007bffffffffffffffffffffffffffffffffffffffffffffffffffffffff19166020820180517bffffffffffffffffffffffffffffffffffffffffffffffffffffffff8381831617835250505050611cb4565b505050565b60008151905060006a636f6e736f6c652e6c6f679050602083016000808483855afa5050505050565b505050565b6000611d038473ffffffffffffffffffffffffffffffffffffffff16611ed4565b15611e6c578373ffffffffffffffffffffffffffffffffffffffff1663150b7a02611d2c6112cd565b8786866040518563ffffffff1660e01b8152600401611d4e9493929190612d77565b602060405180830381600087803b158015611d6857600080fd5b505af1925050508015611d9957506040513d601f19601f82011682018060405250810190611d9691906123f9565b60015b611e1c573d8060008114611dc9576040519150601f19603f3d011682016040523d82523d6000602084013e611dce565b606091505b50600081511415611e14576040517f08c379a0000000000000000000000000000000000000000000000000000000008152600401611e0b90612e98565b60405180910390fd5b805181602001fd5b63150b7a0260e01b7bffffffffffffffffffffffffffffffffffffffffffffffffffffffff1916817bffffffffffffffffffffffffffffffffffffffffffffffffffffffff191614915050611e71565b600190505b949350505050565b611e838383611ee7565b611e906000848484611ce2565b611ecf576040517f08c379a0000000000000000000000000000000000000000000000000000000008152600401611ec690612e98565b60405180910390fd5b505050565b600080823b905060008111915050919050565b600073ffffffffffffffffffffffffffffffffffffffff168273ffffffffffffffffffffffffffffffffffffffff161415611f57576040517f08c379a0000000000000000000000000000000000000000000000000000000008152600401611f4e90612f98565b60405180910390fd5b611f6081611261565b15611fa0576040517f08c379a0000000000000000000000000000000000000000000000000000000008152600401611f9790612eb8565b60405180910390fd5b611fac60008383611cdd565b6001600360008473ffffffffffffffffffffffffffffffffffffffff1673ffffffffffffffffffffffffffffffffffffffff1681526020019081526020016000206000828254611ffc9190613166565b92505081905550816002600083815260200190815260200160002060006101000a81548173ffffffffffffffffffffffffffffffffffffffff021916908373ffffffffffffffffffffffffffffffffffffffff160217905550808273ffffffffffffffffffffffffffffffffffffffff16600073ffffffffffffffffffffffffffffffffffffffff167fddf252ad1be2c89b69c2b068fc378daa952ba7f163c4a11628f55a4df523b3ef60405160405180910390a45050565b8280546120c190613331565b90600052602060002090601f0160209004810192826120e3576000855561212a565b82601f106120fc57805160ff191683800117855561212a565b8280016001018555821561212a579182015b8281111561212957825182559160200191906001019061210e565b5b509050612137919061213b565b5090565b5b8082111561215457600081600090555060010161213c565b5090565b600061216b612166846130f3565b6130c2565b90508281526020810184848401111561218357600080fd5b61218e8482856132ef565b509392505050565b6000813590506121a5816134aa565b92915050565b6000813590506121ba816134c1565b92915050565b6000813590506121cf816134d8565b92915050565b6000815190506121e4816134d8565b92915050565b600082601f8301126121fb57600080fd5b813561220b848260208601612158565b91505092915050565b600081359050612223816134ef565b92915050565b60006020828403121561223b57600080fd5b600061224984828501612196565b91505092915050565b6000806040838503121561226557600080fd5b600061227385828601612196565b925050602061228485828601612196565b9150509250929050565b6000806000606084860312156122a357600080fd5b60006122b186828701612196565b93505060206122c286828701612196565b92505060406122d386828701612214565b9150509250925092565b600080600080608085870312156122f357600080fd5b600061230187828801612196565b945050602061231287828801612196565b935050604061232387828801612214565b925050606085013567ffffffffffffffff81111561234057600080fd5b61234c878288016121ea565b91505092959194509250565b6000806040838503121561236b57600080fd5b600061237985828601612196565b925050602061238a858286016121ab565b9150509250929050565b600080604083850312156123a757600080fd5b60006123b585828601612196565b92505060206123c685828601612214565b9150509250929050565b6000602082840312156123e257600080fd5b60006123f0848285016121c0565b91505092915050565b60006020828403121561240b57600080fd5b6000612419848285016121d5565b91505092915050565b60006020828403121561243457600080fd5b600061244284828501612214565b91505092915050565b6124548161327b565b82525050565b6124638161328d565b82525050565b600061247482613123565b61247e8185613139565b935061248e8185602086016132fe565b61249781613499565b840191505092915050565b60006124ad8261312e565b6124b7818561314a565b93506124c78185602086016132fe565b6124d081613499565b840191505092915050565b60006124e68261312e565b6124f0818561315b565b93506125008185602086016132fe565b80840191505092915050565b6000612519600b8361315b565b91507f202d2d204e465420233a200000000000000000000000000000000000000000006000830152600b82019050919050565b600061255960328361314a565b91507f4552433732313a207472616e7366657220746f206e6f6e20455243373231526560008301527f63656976657220696d706c656d656e74657200000000000000000000000000006020830152604082019050919050565b60006125bf601c8361314a565b91507f4552433732313a20746f6b656e20616c7265616479206d696e746564000000006000830152602082019050919050565b60006125ff600e8361315b565b91507f2c20226d61785f76616c7565223a0000000000000000000000000000000000006000830152600e82019050919050565b600061263f60248361314a565b91507f4552433732313a207472616e7366657220746f20746865207a65726f2061646460008301527f72657373000000000000000000000000000000000000000000000000000000006020830152604082019050919050565b60006126a560198361314a565b91507f4552433732313a20617070726f766520746f2063616c6c6572000000000000006000830152602082019050919050565b60006126e5602c8361314a565b91507f4552433732313a206f70657261746f7220717565727920666f72206e6f6e657860008301527f697374656e7420746f6b656e00000000000000000000000000000000000000006020830152604082019050919050565b600061274b60388361314a565b91507f4552433732313a20617070726f76652063616c6c6572206973206e6f74206f7760008301527f6e6572206e6f7220617070726f76656420666f7220616c6c00000000000000006020830152604082019050919050565b60006127b1602a8361314a565b91507f4552433732313a2062616c616e636520717565727920666f7220746865207a6560008301527f726f2061646472657373000000000000000000000000000000000000000000006020830152604082019050919050565b600061281760298361314a565b91507f4552433732313a206f776e657220717565727920666f72206e6f6e657869737460008301527f656e7420746f6b656e00000000000000000000000000000000000000000000006020830152604082019050919050565b600061287d60628361315b565b91507f222c20226465736372697074696f6e223a20225468697320697320616e204e4660008301527f542074686174206c6574732070656f706c6520706c617920696e20746865206760208301527f616d65204d657461766572736520536c6179657221222c2022696d616765223a60408301527f20220000000000000000000000000000000000000000000000000000000000006060830152606282019050919050565b600061292f60048361315b565b91507f7d205d7d000000000000000000000000000000000000000000000000000000006000830152600482019050919050565b600061296f60208361314a565b91507f4552433732313a206d696e7420746f20746865207a65726f20616464726573736000830152602082019050919050565b60006129af602c8361314a565b91507f4552433732313a20617070726f76656420717565727920666f72206e6f6e657860008301527f697374656e7420746f6b656e00000000000000000000000000000000000000006020830152604082019050919050565b6000612a1560298361314a565b91507f4552433732313a207472616e73666572206f6620746f6b656e2074686174206960008301527f73206e6f74206f776e00000000000000000000000000000000000000000000006020830152604082019050919050565b6000612a7b600a8361315b565b91507f7b226e616d65223a2022000000000000000000000000000000000000000000006000830152600a82019050919050565b6000612abb60218361314a565b91507f4552433732313a20617070726f76616c20746f2063757272656e74206f776e6560008301527f72000000000000000000000000000000000000000000000000000000000000006020830152604082019050919050565b6000612b21601d8361315b565b91507f646174613a6170706c69636174696f6e2f6a736f6e3b6261736536342c0000006000830152601d82019050919050565b6000612b6160318361314a565b91507f4552433732313a207472616e736665722063616c6c6572206973206e6f74206f60008301527f776e6572206e6f7220617070726f7665640000000000000000000000000000006020830152604082019050919050565b6000612bc7603d8361315b565b91507f222c202261747472696275746573223a205b207b202274726169745f7479706560008301527f223a20224865616c746820506f696e7473222c202276616c7565223a200000006020830152603d82019050919050565b6000612c2d602d8361315b565b91507f7d2c207b202274726169745f74797065223a202241747461636b2044616d616760008301527f65222c202276616c7565223a20000000000000000000000000000000000000006020830152602d82019050919050565b612c8f816132e5565b82525050565b6000612ca082612a6e565b9150612cac82896124db565b9150612cb78261250c565b9150612cc382886124db565b9150612cce82612870565b9150612cda82876124db565b9150612ce582612bba565b9150612cf182866124db565b9150612cfc826125f2565b9150612d0882856124db565b9150612d1382612c20565b9150612d1f82846124db565b9150612d2a82612922565b9150819050979650505050505050565b6000612d4582612b14565b9150612d5182846124db565b915081905092915050565b6000602082019050612d71600083018461244b565b92915050565b6000608082019050612d8c600083018761244b565b612d99602083018661244b565b612da66040830185612c86565b8181036060830152612db88184612469565b905095945050505050565b6000602082019050612dd8600083018461245a565b92915050565b60006020820190508181036000830152612df881846124a2565b905092915050565b60006080820190508181036000830152612e1a81876124a2565b90508181036020830152612e2e81866124a2565b9050612e3d6040830185612c86565b8181036060830152612e4f81846124a2565b905095945050505050565b60006060820190508181036000830152612e7481866124a2565b9050612e836020830185612c86565b612e906040830184612c86565b949350505050565b60006020820190508181036000830152612eb18161254c565b9050919050565b60006020820190508181036000830152612ed1816125b2565b9050919050565b60006020820190508181036000830152612ef181612632565b9050919050565b60006020820190508181036000830152612f1181612698565b9050919050565b60006020820190508181036000830152612f31816126d8565b9050919050565b60006020820190508181036000830152612f518161273e565b9050919050565b60006020820190508181036000830152612f71816127a4565b9050919050565b60006020820190508181036000830152612f918161280a565b9050919050565b60006020820190508181036000830152612fb181612962565b9050919050565b60006020820190508181036000830152612fd1816129a2565b9050919050565b60006020820190508181036000830152612ff181612a08565b9050919050565b6000602082019050818103600083015261301181612aae565b9050919050565b6000602082019050818103600083015261303181612b54565b9050919050565b600060208201905061304d6000830184612c86565b92915050565b600060c0820190506130686000830189612c86565b818103602083015261307a81886124a2565b9050818103604083015261308e81876124a2565b905061309d6060830186612c86565b6130aa6080830185612c86565b6130b760a0830184612c86565b979650505050505050565b6000604051905081810181811067ffffffffffffffff821117156130e9576130e861346a565b5b8060405250919050565b600067ffffffffffffffff82111561310e5761310d61346a565b5b601f19601f8301169050602081019050919050565b600081519050919050565b600081519050919050565b600082825260208201905092915050565b600082825260208201905092915050565b600081905092915050565b6000613171826132e5565b915061317c836132e5565b9250827fffffffffffffffffffffffffffffffffffffffffffffffffffffffffffffffff038211156131b1576131b06133dd565b5b828201905092915050565b60006131c7826132e5565b91506131d2836132e5565b9250826131e2576131e161340c565b5b828204905092915050565b60006131f8826132e5565b9150613203836132e5565b9250817fffffffffffffffffffffffffffffffffffffffffffffffffffffffffffffffff048311821515161561323c5761323b6133dd565b5b828202905092915050565b6000613252826132e5565b915061325d836132e5565b9250828210156132705761326f6133dd565b5b828203905092915050565b6000613286826132c5565b9050919050565b60008115159050919050565b60007fffffffff0000000000000000000000000000000000000000000000000000000082169050919050565b600073ffffffffffffffffffffffffffffffffffffffff82169050919050565b6000819050919050565b82818337600083830152505050565b60005b8381101561331c578082015181840152602081019050613301565b8381111561332b576000848401525b50505050565b6000600282049050600182168061334957607f821691505b6020821081141561335d5761335c61343b565b5b50919050565b600061336e826132e5565b91507fffffffffffffffffffffffffffffffffffffffffffffffffffffffffffffffff8214156133a1576133a06133dd565b5b600182019050919050565b60006133b7826132e5565b91506133c2836132e5565b9250826133d2576133d161340c565b5b828206905092915050565b7f4e487b7100000000000000000000000000000000000000000000000000000000600052601160045260246000fd5b7f4e487b7100000000000000000000000000000000000000000000000000000000600052601260045260246000fd5b7f4e487b7100000000000000000000000000000000000000000000000000000000600052602260045260246000fd5b7f4e487b7100000000000000000000000000000000000000000000000000000000600052604160045260246000fd5b6000601f19601f8301169050919050565b6134b38161327b565b81146134be57600080fd5b50565b6134ca8161328d565b81146134d557600080fd5b50565b6134e181613299565b81146134ec57600080fd5b50565b6134f8816132e5565b811461350357600080fd5b5056fe4142434445464748494a4b4c4d4e4f505152535455565758595a6162636465666768696a6b6c6d6e6f707172737475767778797a303132333435363738392b2f4d696e746564204e465420772f20746f6b656e496420257320616e6420636861726163746572496e646578202573a26469706673582212209a5fcc345b1e4e1db5a25f853f786432b6aeb1a06f679112361a17fb7d0a015d64736f6c63430008000033446f6e6520696e697469616c697a696e6720257320772f2048502025732c20696d67202573",
  "linkReferences": {},
  "deployedLinkReferences": {}
}